:030000000228567D
:0C285600787FE4F6D8FD75810702289D0C
:10315E00759852758780438920758BF1758DF1D2E4
:02316E008E22AF
:102ACD006E6563006C6162003530353630006B66C3
:102ADD00006C6F67696300737263006E73650072DB
:102AED006335007263355F78000000000000000060
:102AFD0000000000000000000000000000000000C9
:102B0D0000000000000000000000000000000000B8
:102B1D0000000000000000000000000000000000A8
:092B2D000000000000000000009F
:10108F00413BED00413BEE00413957005B3D94FF82
:10109F002ACDFF2AD1FF2AD5FF2ADBFF2ADEFF2A1E
:1010AF00E4FF2AE8FF2AECFF2AF060223C7C0002D2
:1010BF000202020202020202020202020202020201
:1010CF0002020202020202020202020202020206ED
:1010DF00423BEF0306603B38BF00091898002328F6
:1010EF00919401F4070000000000000202308230EA
:1010FF0000C80202308690012C03232888CA01F40D
:10110F00040230CE2003E80501F4BA9803E8013C4D
:10111F007C013BEF4C3D160001020202020202026B
:10112F00020206603B385201018C980001189C8422
:10113F00008C010118980605DC02011892AC01F42D
:10114F000201189C8401F407000000000000070052
:10115F0000000000000501F4BA9803E8013D1600F5
:10116F000000543B3100020202020202020201029D
:10117F00020202020202020106603B3C190209044C
:10118F00980020D0906801F4010208906801F402E1
:10119F000208841A01F4020208883401F4070000DF
:1011AF0000000000070000000000000501F4BA98DD
:1011BF0003E8013B310000006032388D000202026B
:1011CF0002020202020202020202020202020202F0
:1011DF0002020202020202020202020202020202E0
:1011EF000202020202020202020202020206603B35
:1011FF0039F60302BE20000E38870801F4070000FD
:10120F000000000002017C817C009602017C854673
:10121F00012C070000000000000700000000000084
:10122F000501F4CE2003E801388D0000004E3BB7D6
:10123F000002020202020202020202020206603BE6
:10124F003CDB04007D20001388938801F407000025
:10125F00000000000200FA81F400640201F483E848
:10126F0000C8070000000000000700000000000099
:10127F000501F4CE2003E8013BB7000000602B3DD1
:10128F0069000202020202020202020202020202CA
:10129F000202020202020202020201020202020220
:1012AF00020202020202020202020206603B39BB84
:1012BF000509186000177087D00190010E388E381D
:1012CF000190020230823000C80202308460012C8B
:1012DF0007000000000000070000000000000502EA
:1012EF0030CE2003E8013D69000000602B3D3D003A
:1012FF0002020202020202020202020202020202BF
:10130F0002020202020202020002020202020202B0
:10131F0002020202020202020206423CD9030660E6
:10132F003B398006091860000E38870801900700C6
:10133F000000000000020230823000C80202308438
:10134F0060012C030E388E3801F4040230CE2003D6
:10135F00E8050230CE2003E8013D3D013CD94F3B6B
:10136F0080000001020202020202020202020206D1
:10137F00603B3C9E0711C89800833E033E00C801A6
:10138F00833E033E00C802033E833E00C802833EF5
:10139F00033E00C807000000000000070000000027
:1013AF00000005833E3A9803E8013B800000004DA2
:1013BF00394A000202020202020202020202026023
:1013CF003B3B450711C89800833E033E00C801838D
:1013DF003E033E00C802033E833E00C802833E0325
:1013EF003E00C807000000000000070000000000DA
:1013FF000005833E3A9803E801394A00000060284F
:10140F00382A0138BF000000000000000000000073
:10141F0000000000000000000000000000000000BD
:10142F0000000000000000000000602838020138B2
:10143F00520000000000000000000000000000004B
:10144F00000000000000000000000000000000008D
:10145F0000000000000060283BC5013C190000009F
:10146F00000000000000000000000000000000006D
:10147F00000000000000000000000000000000005D
:10148F000000602839580139F60000000000000004
:10149F00000000000000000000000000000000003D
:1014AF0000000000000000000000000000006028A5
:1014BF003C54013CDB000000000000000000000075
:1014CF00000000000000000000000000000000000D
:1014DF0000000000000000000000602839220139E0
:1014EF00BB00000000000000000000000000000032
:1014FF0000000000000000000000000000000000DD
:10150F00000000000000602838FA01398000000058
:10151F0000000000000000000000000000000000BC
:10152F0000000000000000000000000000000000AC
:10153F00000060283BF1013C9E000000000000000D
:10154F00000000000000000000000000000000008C
:10155F0000000000000000000000000000006028F4
:10156F003B8F013B45000000000000000000000021
:10157F00000000000000000000000000000000005C
:10158F00000000000000000000005B3D2201382A2F
:10159F00013802013BC5013958013C540139220180
:0D15AF0038FA013BF1013B8F42380000008B
:0F1EEE00903E40EBF0A3EAF0A3E9F0A31219999C
:101EFD0078487C3E7D017BFF7A2A79F67E007F1043
:101F0D0012169978587C3E7D017BFF7A2B79067EDF
:061F1D00007F101216996E
:101F2300E4903E68F0A3F0903E40E0FBA3E0FAA308
:101F3300E0F9903E68E0FEA3E0FFF5828E8312167F
:101F4300D8FD74482FF582743E3EF583EDF0903E44
:101F530069E004F07006903E68E004F0903E68E0AB
:081F63007004A3E0641070BFDC
:101F6B00E4903E47F0903E47E0FFE4FCFDFE903EE0
:101F7B0043E0F8A3E0F9A3E0FAA3E0FBD312189F28
:101F8B005003022099E47F01FEFDFC903E47E0FBED
:101F9B00541FF9F81218C3EBC413540725E025E0BE
:101FAB002448F582E4343EF583E0F8A3E0F9A3E09E
:101FBB00FAA3E05FFFEA5EFEE95DFDE85C4D4E4F84
:101FCB007003022090903E43E0FCA3E0FDA3E0FEF3
:101FDB00A3E024FFFFEE34FFFEED34FFFDEC34FFF6
:101FEB00FCC007A3D007C3EF9BFFEE9400FEED945C
:101FFB0000FDEC9400FCE47B20FAF9F812180D902C
:10200B003E5875F004EF1219D6EE25E025E0258336
:10201B00F583C083C082E0F8A3E0F9A3E0FAA3E064
:10202B00FBC000C001C002C003903E43E0FCA3E034
:10203B00FDA3E0FEA3E024FFFFEE34FFFEED34FF33
:10204B00FDEC34FFFCC007A3E0FBD007C3EF9BFF05
:10205B00EE9400ED9400EC9400EF541FFFE4A907FD
:10206B007F01FEFDFCA8011218C3D003D002D001E2
:10207B00D000EB4FFFEA4EFEE94DFDE84CFCD08261
:0E208B00D083121999903E47E004F0021F70B6
:10209900E4903E68F0A3F0903E68E0FEA3E0FF24E0
:1020A90058F582743E3EF583E0FD903E40E0FBA387
:1020B900E0FAA3E0F98F828E83ED12174A903E6908
:1020C900E004F07006903E68E004F0903E68E0702D
:0720D90004A3E0641070C0D5
:0120E00022DD
:0E1AA500903E40EBF0A3EAF0A3E9F0A3EDF0D1
:101AB30078447C3E7D017BFF7A2B79167E007F1074
:101AC30012169978547C3E7D017BFF7A2B79267E12
:101AD300007F10121699903E43E02407131313540A
:051AE3001F903E64F0BD
:101AE800E4A3F0A3F0903E40E0FBA3E0FAA3E0F902
:101AF800903E65E0FEA3E0FFF5828E831216D8FDC6
:101B080074442FF582743E3EF583EDF0903E66E016
:101B180004F07006903E65E004F0903E65E07004C5
:061B2800A3E0641070BF91
:101B2E00903E47E0903E54F0903E46E0903E55F099
:101B3E00903E45E0903E56F0903E44E0903E57F089
:101B4E00903E4BE0903E58F0903E4AE0903E59F069
:101B5E00903E49E0903E5AF0903E48E0903E5BF059
:101B6E00903E4FE0903E5CF0903E4EE0903E5DF039
:101B7E00903E4DE0903E5EF0903E4CE0903E5FF029
:101B8E00903E53E0903E60F0903E52E0903E61F009
:101B9E00903E51E0903E62F0903E50E0903E63F0F9
:101BAE00E4903E65F0A3F0903E65E0FEA3E0FF24D6
:101BBE0054F582743E3EF583E0FD74442FF5827435
:101BCE003E3EF583EDF0903E66E004F07006903EEA
:101BDE0065E004F0903E65E07004A3E0641070C709
:101BEE00E4FF903E64E0FEEFC39E5025EFFDEEC392
:101BFE009DFDE49400FC74432DF582743E3CF58308
:101C0E00E0FE74542FF582E4343EF583EEF00F803F
:101C1E00D1903E57E0903E44F0903E56E0903E45C7
:101C2E00F0903E55E0903E46F0903E54E0903E4798
:101C3E00F0903E5BE0903E48F0903E5AE0903E4978
:101C4E00F0903E59E0903E4AF0903E58E0903E4B68
:101C5E00F0903E5FE0903E4CF0903E5EE0903E4D48
:101C6E00F0903E5DE0903E4EF0903E5CE0903E4F38
:101C7E00F0903E63E0903E50F0903E62E0903E5118
:101C8E00F0903E61E0903E52F0903E60E0903E5308
:011C9E00F055
:101C9F00E4903E65F0A3F0903E65E0FEA3E0FF24E4
:101CAF0044F582743E3EF583E0FD903E40E0FBA399
:101CBF00E0FAA3E0F98F828E83ED12174A903E6609
:101CCF00E004F07006903E65E004F0903E65E07031
:071CDF0004A3E0641070C0D3
:011CE60022DB
:10005600903E09121999903E06EBF0A3EAF0A3E947
:01006600F0A9
:10006700903E111219A500000000903E157403F090
:10007700903E341219A55A5A55AA1219E290000255
:100087001216D8FFE4FCFDFE903E09E0F8A3E0F964
:10009700A3E0FAA3E0FBC312189F5015903E06E0B9
:1000A700FBA3E0FAA3E0F9900003E412174A021059
:1000B70088903E06E0FBA3E0FAA3E0F99000031264
:1000C70016D860030202629000041216D860030279
:0200D70001EF37
:1000D9001219E290000512176CE5F0903E0630E720
:1000E90010E0FBA3E0FAA3E0F91219E290000780FF
:1000F9000EE0FBA3E0FAA3E0F91219E29000051261
:10010900176CFBAAF0EA5480FE7F00E4FCFD903EE8
:1001190038121999EA547FFEAF03E4FCFD903E3C86
:10012900121999903E0DE0FCA3E0FDA3E0FEA3E0C7
:10013900FF780F1218C3903E38E0F8A3E0F9A3E066
:10014900FAA3E06FFFEA6EFEE96DFDE86CFC4D4E27
:100159004F6003021088903E06E0FBA3E0FAA3E09B
:10016900F91219E290000912176CAEF0FBAA069079
:100179003E3CE0FCA3E0FDA3E0FEA3E0C39BFFEE51
:100189009AFEED9400FDEC9400FC903E09E0F8A382
:10019900E0F9A3E0FAA3E0FBD312189F4045903E93
:1001A90006E0FBA3E0FAA3E0F91219E290000912B4
:1001B900176CFFE4FCFD903E3CE0F8A3E0F9A3E0F6
:1001C900FAA3E02FFFEA35F0FEED39FDEC38FC909B
:1001D9003E09E0F8A3E0F9A3E0FAA3E0FBC3121893
:0601E9009F400302108894
:1001EF00903E06E0FBA3E0FAA3E0F9900003740150
:1001FF0012174A903E0BE0FFA3E0900006CF8FF05E
:10020F001217A49000041216D87045903E06E0FB1A
:10021F00A3E0FAA3E0F91219E290000512176CE5BA
:10022F00F030E7047F0180027F00EF6023903E06ED
:10023F00E0FBA3E0FAA3E0F9900003E412174A9061
:10024F000006E4F5F01217A49000047401121705CC
:10025F00021088903E06E0FBA3E0FAA3E0F99000BD
:10026F000612176CFFE4FCFD903E09E0F8A3E0F9DD
:10027F00A3E0FAA3E02FFFEA35F0FEED39FDEC38ED
:10028F00FC903E11121999903E06E0FBA3E0FAA3F1
:10029F00E0F9900006E4F5F01217A4900003E412C1
:1002AF00174A1219E2900035121A02EA494B7003ED
:1002BF00020D68903E06E0FBA3E0FAA3E0F91219E5
:1002CF00E2900035121A02C003C002C001903E0630
:1002DF00E0FBA3E0FAA3E0F99000041216D8FFD0D8
:1002EF0001D002D003F5827583001216D8FE903E1E
:1002FF0016F0903E06E0FBA3E0FAA3E0F91219E234
:10030F00900035121A02EFF582758300A31216D8EA
:10031F00903E17F0EED394024006903E16E004F0A4
:10032F00903E06E0FBA3E0FAA3E0F91219E2903E3B
:10033F0016E075F007A429F9EA35F0FA90000712D4
:10034F00176CFFE5F0547FFE90000512176CFDE56A
:10035F00F0547FFCED2FFFEC3EFEE4FCFD903E1CC5
:10036F0012199990000912176CFFAEF0E4FCFD9082
:10037F003E2012199990000712176CE5F05480FE79
:10038F007F00E4FCFDC004C005C006C007903E0D11
:10039F00E0FCA3E0FDA3E0FEA3E0FF780F1218C37B
:1003AF00D003D002D001D000EF6BFFEE6AFEED69F3
:1003BF00FDEC684D4E4F70047F0180027F00E4FC1E
:1003CF00FDFE903E24121999903E06E0FBA3E0FA41
:1003DF00A3E0F91219E21216BF640760030204A525
:1003EF00903E1CE0F8A3E0F9A3E0FAA3E0FBC00005
:1003FF00C001C002C003903E06E0FBA3E0FAA3E0F9
:10040F00F91219E2903E17E075F007A429F9EA35C1
:10041F00F0FA90000512176CFFE5F0547FFEE4FC34
:10042F00FDD003D002D001D000EB2FFFEA3EFEED4E
:10043F0039FDEC38FC903E1C121999903E20E0F8E3
:10044F00A3E0F9A3E0FAA3E0FBC000C001C002C023
:10045F0003903E06E0FBA3E0FAA3E0F91219E29045
:10046F003E17E075F007A429F9EA35F0FA90000578
:10047F0012176CFFE5F0547FFEE4FCFDD003D002B1
:10048F00D001D000EB2FFFEA3EFEED39FDEC38FC3A
:10049F00903E20121999903E06E0FBA3E0FAA3E0EC
:1004AF00F91219E2900035121A02C003C002C001FE
:1004BF00903E06E0FBA3E0FAA3E0F99000041216C9
:1004CF00D8D001D002D003F5827583001216D864FC
:1004DF00026003020801903E06E0FBA3E0FAA3E0EE
:1004EF00F91219E290001C12176CFFE5F0547FFE11
:1004FF0090001A12176CFDE5F0547FFCED2FFFEC06
:10050F003EFEE4FCFD903E2812199990001E121732
:10051F006CFFAEF0E4FCFD903E2C12199990001C7C
:10052F0012176CE5F05480FE7F00E4FCFDC004C0A0
:10053F0005C006C007903E0DE0FCA3E0FDA3E0FE62
:10054F00A3E0FF780F1218C3D003D002D001D00060
:10055F00EF6BFFEE6AFEED69FDEC684D4E4F7004D8
:10056F007F0180027F00E4FCFDFE903E301219995E
:10057F00903E06E0FBA3E0FAA3E0F91219E212168F
:10058F00BF64076003020631903E28E0F8A3E0F94C
:10059F00A3E0FAA3E0FBC000C001C002C003903E7D
:1005AF0006E0FBA3E0FAA3E0F91219E290001A1299
:1005BF00176CFFE5F0547FFEE4FCFDD003D002D0B2
:1005CF0001D000EB2FFFEA3EFEED39FDEC38FC9039
:1005DF003E28121999903E2CE0F8A3E0F9A3E0FA17
:1005EF00A3E0FBC000C001C002C003903E06E0FBC9
:1005FF00A3E0FAA3E0F91219E290001A12176CFFA8
:10060F00E5F0547FFEE4FCFDD003D002D001D00012
:10061F00EB2FFFEA3EFEED39FDEC38FC903E2C123D
:10062F001999903E06E0FBA3E0FAA3E0F91219E254
:10063F009000011216D8FFC4540F30E030900035EF
:10064F00121A02C003C002C001903E06E0FBA3E0F5
:10065F00FAA3E0F99000041216D8F582758300A36F
:10066F00D001D002D0031216D864066074903E20D9
:10067F00E0F8A3E0F9A3E0FAA3E0FB903E1CE0FC56
:10068F00A3E0FDA3E0FEA3E0C39BFFEE9AFEED996E
:10069F00FDEC98FC903E11E0F8A3E0F9A3E0FAA37B
:1006AF00E0FBD312189F405F903E20E0FCA3E0FDDB
:1006BF00A3E0FEA3E0FF903E1CE0F8A3E0F9A3E067
:1006CF00FAA3E02FFFEA3EFEE93DFDE83CFC903E39
:1006DF0011E0F8A3E0F9A3E0FAA3E0C312189F50CA
:1006EF0026903E24E0FCA3E0FDA3E0FEA3E0FFEC98
:1006FF004D4E4F60047F0180027F00EF6009903EF6
:10070F00157401F00208B5903E06E0FBA3E0FAA3D2
:10071F00E0F91219E29000011216D8FFC4540F30FD
:10072F00E030900035121A02C003C002C001903EA3
:10073F0006E0FBA3E0FAA3E0F99000041216D8F547
:10074F0082758300A3D001D002D0031216D864069D
:10075F006077903E2CE0F8A3E0F9A3E0FAA3E0FB6A
:10076F00903E28E0FCA3E0FDA3E0FEA3E0C39BFFC7
:10077F00EE9AFEED99FDEC98FC903E11E0F8A3E0A7
:10078F00F9A3E0FAA3E0FBD312189F50030208AFBE
:10079F00903E2CE0FCA3E0FDA3E0FEA3E0FF903E23
:1007AF0028E0F8A3E0F9A3E0FAA3E02FFFEA3EFE6A
:1007BF00E93DFDE83CFC903E11E0F8A3E0F9A3E031
:1007CF00FAA3E0C312189F5026903E30E0FCA3E03E
:1007DF00FDA3E0FEA3E0FFEC4D4E4F60047F0180D0
:1007EF00027F00EF6009903E157402F00208B50217
:1007FF0008AF903E20E0F8A3E0F9A3E0FAA3E0FBF6
:10080F00903E1CE0FCA3E0FDA3E0FEA3E0C39BFF32
:10081F00EE9AFEED99FDEC98FC903E11E0F8A3E006
:10082F00F9A3E0FAA3E0FBD312189F4073903E2088
:10083F00E0FCA3E0FDA3E0FEA3E0FF903E1CE0F888
:10084F00A3E0F9A3E0FAA3E02FFFEA3EFEE93DFDA6
:10085F00E83CFC903E11E0F8A3E0F9A3E0FAA3E036
:10086F00C312189F503A903E06E0FBA3E0FAA3E0B4
:10087F00F91219E21216BFB40709903E16E0B4013F
:10088F00028014903E24E0FCA3E0FDA3E0FEA3E071
:10089F00FFEC4D4E4F6007E4903E15F0800880004E
:1008AF00903E157403F0903E15E0FF600C640160FC
:1008BF0008EF64026003020C79903E06E0FBA3E0B0
:1008CF00FAA3E0F99000047401121705EF640160B8
:1008DF000B903E15E064026003020994903E15E010
:1008EF0064026003020981E92408F9E43AFAC003BB
:1008FF00C002C001903E06E0FBA3E0FAA3E0F9902E
:10090F0000051216D8FFC4135407D001D002D0032C
:10091F0075F004A485F08329F9E5833AFAC003C082
:10092F0002C0011218D6C004C005C006C007903E11
:10093F0006E0FBA3E0FAA3E0F99000051216D854E5
:10094F001FF9E47F01FEFDFCA8011218C3A804A93A
:10095F0005AA06AB07D007D006D005D004EF4BFF92
:10096F00EE4AFEED49FDEC48FCD001D002D0031257
:10097F001926903E06E0FBA3E0FAA3E0F9900005EC
:10098F007401121705903E06E0FBA3E0FAA3E0F90D
:10099F001219E21216BF64076003020A8E903E1707
:1009AF00E075F007A429F9EA35F0FA90000912175B
:1009BF006CAEF0FBAA06903E1CE0FCA3E0FDA3E0AA
:1009CF00FEA3E0C39BFFEE9AFEED9400FDEC9400B6
:1009DF00FC903E11E0F8A3E0F9A3E0FAA3E0FBD30B
:1009EF0012189F5003020A8E903E06E0FBA3E0FA16
:1009FF00A3E0F91219E2903E17E075F007A429F968
:100A0F00EA35F0FA90000912176CFFE4FCFD903EF6
:100A1F001CE0F8A3E0F9A3E0FAA3E02FFFEA35F01A
:100A2F00FEED39FDEC38FC903E11E0F8A3E0F9A3A0
:100A3F00E0FAA3E0FBC312189F5044903E06E0FB80
:100A4F00A3E0FAA3E0F9900003740112174A1219F8
:100A5F00E2903E17E075F007A429F9EA35F0FA9015
:100A6F00000512176CFFE5F0547FFE903E06E0FB89
:100A7F00A3E0FAA3E0F9900006EE8FF01217A4900E
:100A8F003E06E0FBA3E0FAA3E0F91219E29000356D
:100A9F00121A02C003C002C001903E06E0FBA3E0A1
:100AAF00FAA3E0F99000041216D8D001D002D003B7
:100ABF00F5827583001216D864066003020C7690D7
:100ACF003E181219A5FFFFFFFF903E06E0FBA3E0C3
:100ADF00FAA3E0F91219E29000011216D830E02FB4
:100AEF00903E06E0FBA3E0FAA3E02408F9E43AFA0B
:100AFF00C002C001903E06A3E0FAA3E0F990000502
:100B0F001216D8FFE4FCFDFED001D002121EEE90AB
:100B1F003E06E0FBA3E0FAA3E0F91219E290000110
:100B2F001216D8FFC31330E02B903E06E0FBA3E074
:100B3F00FAA3E02408F9E43AFAC002C001903E0695
:100B4F00A3E0FAA3E0F99000051216D8FDD001D06A
:100B5F0002121AA5903E06E0FBA3E0FAA3E0F9907B
:100B6F000004E412174A900005E412174A90001887
:090B7F001218F6903E18121999A3
:100B8800E4903E38F0A3F0903E06E0FBA3E0FAA321
:100B9800E02408F9E43AFA903E38E0FEA3E0FF29A1
:100BA800F9EA3EFA1216BFFD903E06A3E0FAA3E06A
:100BB8002418F9E43AFAE92FF9EA3EFAED1217385F
:100BC800903E39E004F07006903E38E004F0903E24
:0A0BD80038E07004A3E0641070AD73
:100BE200E4903E38F0A3F0903E38E0FEA3E0FFC36D
:100BF2009410EE64809480502A903E06E0FBA3E0BD
:100C0200FAA3E02408F9E43AFAE92FF9EA3EFAE411
:100C1200121738903E39E004F070CC903E38E00470
:030C2200F080C49B
:100C2500903E06E0FBA3E0FAA3E0F9900018121845
:100C3500F6903E18E0F8A3E0F9A3E0FAA3E0FBC3C1
:100C450012189F7019903E06E0FBA3E0FAA3E0F9A5
:100C55001219E2900038121A02E94A4B6005E49035
:100C65003D68F0903E06E0FBA3E0FAA3E0F9020F31
:100C750001021088903E15E064036003020D09909F
:100C85003E06E0FBA3E0FAA3E0F99000041216D8B3
:100C9500FF7E00900004E412174A900005E4121745
:010CA5004A04
:100CA600E4903E38F0A3F0903E38E0FCA3E0FDC3AC
:100CB6009410EC64809480502A903E06E0FBA3E0FA
:100CC600FAA3E02408F9E43AFAE92DF9EA3CFAE451
:100CD600121738903E39E004F070CC903E38E004AC
:030CE600F080C4D7
:100CE900903E06E0FBA3E0FAA3E0F91219E29000B6
:100CF90035121A028F828E831216D860620210880A
:100D0900903E06E0FBA3E0FAA3E0F9900004E412A8
:090D1900174A900005E412174A84
:100D2200E4903E38F0A3F0903E38E0FEA3E0FFC32B
:100D32009410EE64809480502A903E06E0FBA3E07B
:100D4200FAA3E02408F9E43AFAE92FF9EA3EFAE4D0
:100D5200121738903E39E004F070CC903E38E0042F
:030D6200F080C45A
:100D6500021088903E06E0FBA3E0FAA3E0F9121911
:100D7500E29000011216D8FF131313541F20E0034D
:100D8500020FD0900038121A02EA494B7003020F85
:010D9500D08D
:100D9600903E06E0FBA3E0FAA3E0F91219E2900008
:100DA60038121A02C003C002C001903E06E0FBA33F
:100DB600E0FAA3E0F99000041216D8D001D002D0D0
:100DC60003F5827583001216D804903E38F0903EE3
:100DD60006E0FBA3E0FAA3E0F91219E2903E38E040
:100DE60075F007A429F9EA35F0FA90000712176C96
:100DF600FFE5F0547FFE90000512176CFDE5F054F8
:100E06007FFCED2FFFEC3EFE90000912176CFDC330
:100E1600EF9DFFEE95F0FEE4FCFD903E11E0F8A399
:100E2600E0F9A3E0FAA3E0FBD312189F4064903EDA
:100E360006E0FBA3E0FAA3E0F91219E2903E38E0DF
:100E460075F007A429F9EA35F0FA90000712176C35
:100E5600FFE5F0547FFE90000512176CFDE5F05497
:100E66007FFCED2FFFEC3EFE90000912176C2FFF62
:100E7600EE35F0FEE4FCFD903E11E0F8A3E0F9A3A8
:100E8600E0FAA3E0FBC312189F5007E4903E15F06A
:100E96008006903E157403F0903E15E07066903E15
:100EA60006E0FBA3E0FAA3E0F99000047401121730
:100EB600051219E2900038121A02C003C002C001DE
:100EC600903E06E0FBA3E0FAA3E0F99000041216B8
:100ED600D8D001D002D003F5827583001216D8B49B
:100EE600061F903E06E0FBA3E0FAA3E0F99000049B
:100EF600E412174A900005E412174A9000180218E7
:100F0600F6021088903E15E06403705F903E06E09E
:100F1600FBA3E0FAA3E0F9900004E412174A90005C
:050F260005E412174A6A
:100F2B00E4903E39F0A3F0903E39E0FEA3E0FFC31E
:100F3B009410EE64809480502A903E06E0FBA3E070
:100F4B00FAA3E02408F9E43AFAE92FF9EA3EFAE4C5
:100F5B00121738903E3AE004F070CC903E39E00422
:030F6B00F080C44F
:100F6E00021088903E06E0FBA3E0FAA3E0F99000A1
:0C0F7E0004E412174A900005E412174A20
:100F8A00E4903E39F0A3F0903E39E0FEA3E0FFC3BF
:100F9A009410EE64809480502A903E06E0FBA3E011
:100FAA00FAA3E02408F9E43AFAE92FF9EA3EFAE466
:100FBA00121738903E3AE004F070CC903E39E004C3
:030FCA00F080C4F0
:030FCD0002108887
:100FD000903E06E0FBA3E0FAA3E0F91219E29000CC
:100FE000031216D8FFE4FCFDFE903E11E0F8A3E0EA
:100FF000F9A3E0FAA3E0FBC312189F501B903E1325
:10100000E0FEA3E0FF903E06E0FBA3E0FAA3E0F9D8
:10101000900006EE8FF08011903E06E0FBA3E0FA10
:10102000A3E0F9900006E4F5F01217A4903E06E064
:10103000FBA3E0FAA3E0F9900004E412174A900041
:0510400005E412174A4F
:10104500E4903E38F0A3F0903E38E0FEA3E0FFC305
:101055009410EE64809480502A903E06E0FBA3E055
:10106500FAA3E02408F9E43AFAE92FF9EA3EFAE4AA
:10107500121738903E39E004F070CC903E38E00409
:03108500F080C434
:0610880074FFFFFEFDFCF9
:01108E00223F
:0625E100903DF91219996A
:1025E700903E021219A5FFFFFFFFE4903E01F09015
:1025F7003E01E0FFC39408400302268AEF75F0030B
:10260700A42422F582E4343DF583E0FBA3E0FAA39A
:10261700E0F9903DFDE0FCA3E0FDA3E0FEA3E0FFB1
:10262700903E0D121999903DF9E0FCA3E0FDA3E05F
:10263700FEA3E0FF120056903E0212199974FFFFA5
:10264700FEFDFC903E02E0F8A3E0F9A3E0FAA3E068
:10265700FBC312189F6023E4FFFEFDFC903E02E0DF
:10266700F8A3A3A3E0C312189F600F903E02E0FCFB
:10267700A3E0FDA3E0FEA3E0FF22903E01E004F00B
:102687000225F6903E01E0B4080674FFFFFEFDFC4C
:012697002220
:101CE700E4903DF2F0903DF6F0903800F0A3F090CC
:101CF7003800E0FEA3E0FFC39408EE94004003021F
:101D07001EE0903D2275F003EF1219D6EE75F00331
:101D1700A42583F583E0FBA3E0FAA3E0F9903DF364
:101D2700EBF0A3EAF0A3E9F0900003E412174A905E
:0D1D37000004E412174A900005E412174A58
:101D4400E4903DF7F0A3F0903DF7E0FEA3E0FFC37D
:101D54009410EE64809480502A903DF3E0FBA3E05D
:101D6400FAA3E02408F9E43AFAE92FF9EA3EFAE49E
:101D7400121738903DF8E004F070CC903DF7E00481
:031D8400F080C428
:101D8700903801E004F07006903800E004F0021C7F
:101D9700F6903BEEE0FF903BEDE06F7003021EED27
:101DA70074312FF582E4343AF583E0903DEDF090FD
:101DB7003DE8E0F8A3E0F9A3E0FAA3E0FB903DEDEE
:101DC700E0547F75F010A4FFE4FCFDEB2FFFEA352C
:101DD700F0FEED39FDEC38FC903DE8121999903D85
:101DE700EDE0FF5480C41313135401903DECF090C1
:101DF7003BEEE004F0E0B4FF02E4F0903BEEE0FEDF
:101E07002431F582E4343AF583E06F20E70C903B08
:101E1700EDE0FFEE6F6003021D98903DECE0FFE4FC
:101E2700FCFDFE903DFD121999903DE8E0FCA3E012
:101E3700FDA3E0FEA3E0FF1225E1903DE41219990E
:101E470074FFFBFAF9F8C312189F7003021EE090A3
:101E57003DE4E0FCA3E0FDA3E0FEA3E0FF903DEE40
:101E6700EFF0903DE4A3A3A3E078081218B0903DEB
:101E7700EFEFF0903DE4E0FCA3E0FDA3E0FEA3E07C
:101E8700FF78101218B0903DF0EFF0903DE4E0FCC1
:101E9700A3E0FDA3E0FEA3E0FF78181218B0903D81
:101EA700F1EFF0903DEEE0FF903DAFE0B5072A90EF
:101EB7003DEFE0FF903DB0E0B5071E903DF0E0FF3D
:101EC700903DB1E0B50712903DF1E0FF903DB2E0E3
:101ED700B507069039577401F0903DE81219A5002F
:061EE700000000021D983E
:011EED0022D2
:1026980090E007E05403903DE1F07003022732E038
:1026A80090E007F0903DE1E024FE6003047047905D
:1026B800E001E0547F903DE2F0A3F0903DE2E0D3EA
:1026C8009400402990E008E0FF903BEDE0FE04F024
:1026D80074312EF582E4343AF583EFF0903BEDE067
:1026E800B4FF02E4F0903DE2E014F080CE903DE3C8
:1026F800E0D3940050B9903DE1E064027092121C5E
:10270800E790E001E0547F903DE2F0903DE2E0D3B5
:102718009400400C90E008E0903DE2E014F080EB7B
:0A272800E4903BEDF0A3F0022698C8
:012732002284
:102D940090C090E054FEF04401F090E000E4F07F35
:102DA40005EFF0A3748FF07F16A3EFF0A3740AF07D
:102DB40090E0077403F090E006F090C021E0440135
:082DC400F0A3E04401F0D2A8E5
:012DCC0022E4
:0D000600903957E0B401037F00227FFF22F4
:102B9000120016903E8EE0B401F9E4903E8EF012E1
:102BA0003135903FFFE0903DB3F07B017A3E796A8A
:102BB000903DB3E0FD122E06903DB77401F0A37472
:102BC0003EF0A37475F07B017A3E796A1222897B0C
:102BD000017A3E796A122EAB7B017A3E796A123015
:032BE0001680C795
:10317000003F71803F71005C3F065B4F666D7D07CD
:023180007F6F5F
:0B31B7007D017C007F017E000227C527
:0931E200E4FDFC7F01FE0227C59B
:03324D000231E269
:0C319F001231B7E4FDFC7F01FE02296A3A
:0A31D8007D017C00E4FFFE0227C524
:0831EB00E4FDFCFFFE0227C514
:0331FA00122F0E83
:0331FD000231EBB1
:0B31C2001231D8E4FDFCFFFE02296A78
:06320000E4FFFE022E3E79
:0731F3007F017E00022E3E69
:102F0E0000000000000000000000000000000000B3
:102F1E0000000000000000000000000000000000A3
:102F2E000000000000000000000000000000002271
:0B31CD000000000000000000000022D5
:10312000AD071FED600EE4FEEE642C7002740160CA
:04313000EF0E80F42A
:013134002278
:10308700EF1FAA0670011E4A6014E4FCFDED6410F0
:0E3097007003EC642760E90DBD00010C80EFB2
:0130A5002208
:102E75001231B71231D812324D123200EF700312EF
:102E85002F0E1231FD122F0E123200EF70037F014B
:102E9500221231F3EF70037F012212319F122F0EA0
:062EA5001231C27F002281
:102F3E001231B71231D812319F1231FA122F0E12EE
:102F4E003200EF70037F012212324D1231CD122F5B
:0D2F5E000E1231F3EF70037F01227F00227D
:102F6B00903DDCEEF0A3EFF01231B71231D81231F5
:102F7B00C2903DDCE07002A3E0600512324D80038D
:0C2F8B0012319F1231FA122F0E0231C2D7
:102FC300E4903DDCF0A3F01231E212324D122F0EE9
:102FD3001231FD122F0E1231F3903DDCE4F0A3EF1A
:092FE300F01231C2903DDDE0FF67
:012FEC0022C2
:052EDD00903DDAEFF06A
:102EE200E4A3F0903DDAE030E7067F017E00800344
:102EF200E4FFFE122F6B903DDAE0FF25E0F0A3E045
:0B2F020004F0E0C3940840DB122FC372
:012F0D0022A1
:082D1900903DC6EEF0A3EFF0BF
:102D2100E4A3F0A3F0903DC8E0FF25E0F0E0FEC091
:102D310006122FC3D0E04F903DC8F0A3E004F0E0AD
:102D4100C3940840E0903DC6E0FEA3E0FF122F6B64
:052D5100903DC8E0FF09
:012D5600225A
:10252900903DC0EBF0A3EAF0A3E9F0903DBFEFF0D6
:10253900903DC5740AF0EF4401903DBFF0903DC550
:10254900E014F06018122E75903DBFE0FF122EDDE9
:10255900EF600A122F3E7F0112312080E0903DC5C5
:10256900E070037FDE22E4903DC5F0903DC4E02495
:10257900FFFF903DC3E034FFFE903DC5E0C39FEEF1
:102589006480F87480985026E4FFFE122D19903D5E
:10259900C0E0FBA3E0FAA3E0F9903DC5E0F5827540
:1025A9008300EF12174A903DC5E004F080BD7F011A
:1025B9007E00122D19903DC0E0FBA3E0FAA3E0F9DB
:1025C900903DC4E024FFFD903DC3E034FF8D82F5CA
:0725D90083EF12174A7F0097
:0125E00022D8
:1028E200903DD4EBF0A3EAF0A3E9F0903DD3EFF0F2
:1028F200903DD9740AF0EF54FE903DD3F0903DD94B
:10290200E014F06018122E75903DD3E0FF122EDD18
:10291200EF600A122F3E7F0112312080E0903DD9F4
:10292200E070037FDE22E4903DD9F0903DD9E0FFD4
:10293200D3903DD8E09F7480F8903DD7E0648098B2
:102942004023903DD4E0FBA3E0FAA3E0F9903DD907
:10295200E0F5827583001216D8FF122EDD903DD964
:07296200E004F080C67F00D5
:01296900224B
:102FED00903E88EEF0A3EFF0A3ECF0A3EDF01232DB
:102FFD004D1231FD903E8AE07002A3E06005123162
:09300D00D880031231EB7F002290
:1030A600903DBDE0FDA3E0903DC3CDF0A3EDF01251
:0B30B6002529EF600122122F3E7F0051
:0130C10022EC
:0C303F007B01903DD1E4F0A304F07F6C15
:10304B00903DD1E0FDA3E0903DD7CDF0A3EDF01284
:0B305B0028E2EF600122122F3E7F00F0
:013066002247
:102BE30078BC7C3D7D017BFF7A3179707E007F0468
:102BF3001216997B017A3D79BE903DD1E4F0A3048E
:102C0300F07F6E12304B7A3D79BE12303F7B017AF2
:102C13003D79BD903DD1E4F0A304F07F6A12304BBF
:102C23007B017A3D79BC903DD1E4F0A304F07F6849
:032C330002304B21
:102C360078BC7C3D7D017BFF7A3179747E007F0410
:102C46001216997B017A3D79BE903DD1E4F0A3043A
:102C5600F07F6812304B7B017A3D79BE903DD1E41E
:102C6600F0A304F07F6A12304B7A3D79BE12303FF2
:102C76007B017A3D79BE903DD1E4F0A304F07F6EEE
:032C860002304BCE
:0B245A00903DBCEBF0A3EAF0A3E9F01A
:1024650078C37C3D7D017BFF7A3179787E007F0AD8
:10247500121699903DBCE0FBA3E0FAA3E0F99000A9
:10248500091216D8FF75F00A84AEF0EF75F00A84CC
:10249500903DBFF09000081216D8FF75F00A8490A1
:1024A5003DC0E5F0F0EF75F00A84A3F0903DBFE084
:1024B50024C3F582E4343DF583E04480903DC2F0C9
:1024C500AF0674C32FF9E4343DFA7B01903DD1E4A6
:1024D500F0A304F07F6E12304B903DBFE024C3F9AA
:1024E500E4343DFA12303F7B017A3D79C212304126
:1024F500903DC0E024C3F9E4343DFA7B01903DD121
:10250500E4F0A304F07F6A12304B903DC1E024C390
:10251500F9E4343DFA7B01903DD1E4F0A304F07F6A
:042525006802304BCD
:0D3192007F017E00122C89E4FFFE022C89D3
:102F9700903DB9EBF0A3EAF0A3E9F0903DB8EFF06C
:102FA7007003022C36903DB8E0B4020CA3E0FBA3FB
:0C2FB700E0FAA3E0F902245A122BE322F6
:103067007B017A3D79B8903DBDE4F0A304F07F4F32
:0F3077001230A6903DB8E0B415037F00227FFF12
:013086002227
:102B36007E01E4903DB4F0EF602B90E610740CF04B
:102B4600A37490F0A374F9F0A374FFF090E61C74DC
:102B56000CF0A37490F0A374F9F0A374FFF090E660
:102B660018E04480F0D2AAD2AF90C025E04401F02C
:102B7600A3E04401FDF0EF6005EE44948003EE44CB
:0A2B86001490E618F07F010231827E
:10318200EF90E6186005E04410F022E054EFF022E0
:1020E100903DBAEBF0A3EAF0A3E9F0903DBAE0FB32
:1020F100A3E0FAA3E0F990000A1216D8D3943B505A
:102101000302228890000AE412174A900009740120
:102111001217059000091216D8D3943B50030222DE
:1021210088903DBAE0FBA3E0FAA3E0F9900009E44E
:1021310012174A9000087401121705900008121630
:10214100D8D394175003022288903DBAE0FBA3E054
:10215100FAA3E0F9900008E412174A90000774010D
:102161001217059000061216D8FF6401601EEF6475
:10217100036019EF64056014EF6407600FEF6408F2
:10218100600AEF640A6005EF640C705D903DBAE08F
:10219100FBA3E0FAA3E0F99000071216D8D3941F2D
:1021A1004047900007740112174A9000067401120B
:1021B10017059000061216D8D3940C402C903DBA06
:1021C100E0FBA3E0FAA3E0F9900006740112174ABC
:1021D1009000021218F6EF2401FFE43EFEE43DFDFB
:1021E100E43CFC900002121940903DBAE0FBA3E0F0
:1021F100FAA3E0F99000061216D86402704A900022
:10220100071216D8D3941D4008122733EF600280BD
:102211001C903DBAE0FBA3E0FAA3E0F9900007129D
:1022210016D8D3941C4021122733EF701B903DBA6E
:10223100E0FBA3E0FAA3E0F9900007740112174A4A
:102241009000067401121705903DBAE0FBA3E0FA75
:10225100A3E0F99000061216D8FF6404600EEF6443
:10226100066009EF64096004EFB40B1B90000712CC
:1022710016D8D3941E4010900007740112174A908B
:0822810000067401121705228A
:102CD5001216BF90C20BF09000011216D890C20ACE
:102CE500F09000061216D890C208F0900007121650
:102CF500D890C207F09000081216D890C206F0903E
:102D050000091216D890C205F090000A1216D89044
:042D1500C204F022E2
:10273300903DBDEBF0A3EAF0A3E9F0903DBDE0FBD3
:10274300A3E0FAA3E0F99000021218F6EF5403FF96
:10275300E4FEFDFCFBFAF9F8C312189F7030903DBC
:10276300BDE0FBA3E0FAA3E0F99000021218F6E43F
:102773007B64FAF9F812180DAC00AD01AE02AF0399
:10278300E4FBFAF9F8C312189F60037F0122903D1E
:10279300BDE0FBA3E0FAA3E0F99000021218F6E40F
:1027A3007B907A01F9F812180DAC00AD01AE02AFBF
:1027B30003E4FBFAF9F8C312189F70037F01227F29
:0227C3000022F2
:03001300022DCDEE
:0F2DCD00C0E0C083C082C0D075D000C006C00770
:102DDC007E01C2AF90C024E0FF90E618E04E44089C
:0D2DEC00F0EF30E006903E74E004F0D2AF4E
:0D2DF900D007D006D0D0D082D083D0E032F9
:0C15BC00413E8E00413E8C00413E8D00FF
:0632060090C055EFF0221C
:05320C0090C054E0FF3A
:01321100229A
:0532120090C056E0FF32
:013217002294
:0632180090C056EFF02209
:06321E0090C057EFF02202
:0632240090C05DEFF022F6
:05322A0090C05CE0FF14
:01322F00227C
:0532300090C05EE0FF0C
:013235002276
:0632360090C05EEFF022E3
:06323C0090C05FEFF022DC
:102C8900AD07AC06C3ED9408EC64809480501C74C5
:102C9900017E00A807088005C333CE33CED8F9FFDB
:102CA90090C057E0FBEF4BFF02321EED24F8FF7492
:102CB900017E00A807088005C333CE33CED8F9FFBB
:0C2CC90090C05FE0FDEF4DFF12323C2296
:0331AB001232429B
:0931AE00E4FFFE12321E02323C65
:042E3E00AB07AA062E
:102E4200C3EB9408EA64809480501112320CAE03F2
:102E5200EFA806088002C313D8FC801112322AEBB5
:102E620024F8FEEFA806088002C313D8FC5401FD23
:022E7200AF05AA
:012E7400223B
:10296A00903DDEEEF0A3EFF0C39408EE648094800D
:10297A005037E0F974017E00A801088005C333CE00
:10298A0033CED8F9F4FF90C055E0FB7A00EF5BFB39
:10299A00EDAE04A801088005C333CE33CED8F9FFC3
:1029AA00EE4AFEEF4BFF023206903DDFE024F8F9D3
:1029BA0074017E00A801088005C333CE33CED8F94E
:1029CA00F4FF90C05DE0FB7A00EF5BFBAE04EDA87C
:1029DA0001088005C333CE33CED8F9FFEE4AFEEFA5
:0629EA004BFF1232242213
:1027C500903DDEEEF0A3EFF0C39408EE64809480B4
:1027D500503E123212EFFB7A00903DDFE0F97401B2
:1027E5007E00A801088005C333CE33CED8F9F4FFA7
:1027F500EEF45AFAEF5BFBEDAE04A801088005C3C1
:1028050033CE33CED8F9FFEE4AFEEF4BFF02321836
:10281500123230EFFB7A00903DDFE024F8F97401C5
:102825007E00A801088005C333CE33CED8F9F4FF66
:10283500EEF45AFAEF5BFBAE04EDA801088005C380
:1028450033CE33CED8F9FFEE4AFEEF4BFF123236C8
:012855002260
:062A6000903E801219995E
:102A6600903E841219A500000258903E841219A5C2
:102A760000000000903E80E0FCA3E0FDA3E0FEA382
:102A8600E0FFA3E0F8A3E0F9A3E0FAA3E0FBC3129A
:102A9600189F5032903E8474FF121966EC4D4E4FCB
:102AA60070F2903E84E0FCA3E0FDA3E0FEA3E024E8
:102AB600FFFFEE34FFFEED34FFFDEC34FFFC903EED
:062AC6008412199980AE94
:012ACC0022E7
:0632420090C022E4F0221E
:1000160012315E12003E12004612004E1232489015
:10002600E618E4F090C022E054FEF090E006E4F01A
:04003600FF02314A4A
:1031350090C020E0F0122D941231927F0112314A95
:053145007F01022B36A2
:0B2E0600903DB4EBF0A3EAF0A3E9F06C
:102E1100AF05122F97123067903DB7EFF0701D7418
:102E21000812310A903DB4E0FBA3E0FAA3E0F912E5
:0C2E31002CD51231AB90C101E4F080FE02
:012E3D002272
:0B2EAB00903DB4EBF0A3EAF0A3E9F0C7
:102EB600120006903DB7EFF0701C0412310A903DE7
:102EC600B4E0FBA3E0FAA3E0F9122CD51231AB90E3
:062ED600C101E4F080FEE2
:012EDC0022D3
:10228900903DB4EBF0A3EAF0A3E9F0903DB4E0FB94
:10229900A3E0FAA3E0F91220E1903DB7E0FBA3E047
:1022A900FAA3E0F99000071216D8FF903DB4E0FBBD
:1022B900A3E0FAA3E0F99000071216D8FE6F6003B5
:1022C900022381903DB7E0FBA3E0FAA3E0F9900077
:1022D900081216D8FF903DB4E0FBA3E0FAA3E0F999
:1022E9009000081216D86F6003022381903DB7E071
:1022F900FBA3E0FAA3E0F99000091216D8FF903D7C
:10230900B4E0FBA3E0FAA3E0F99000091216D86F34
:102319007066903DB7E0FBA3E0FAA3E0F9900006F0
:102329001216D8FF903DB4E0FBA3E0FAA3E0F990C0
:1023390000061216D8FD6F703FEED3940040399015
:1023490000071216D8C39420502EED94004029EDB1
:10235900940D5024903E8C7480F012324212310E4A
:10236900903DB4E0FBA3E0FAA3E0F9122CD51231B9
:09237900AE90C101E4F080FE22E7
:10301600903E8DE064017020903E8C7408F090E044
:1030260012E04420F0122CD51232421231AE123187
:093036000E90C101E4F080FE22BD
:102D570090E0107480F0A3743EF0A3E4F0A3E05475
:102D6700F0F090E018746AF0A37418F0A3E4F0A3ED
:102D77007480F090C021E04408F0A3E04408F0D24A
:0C2D870088D2A890E013E04480F0D2AFA6
:012D9300221D
:10314A00EF90E000B40106E04480F08004E0547F90
:04315A00F0022D57FB
:0A310A00903E8CF07B557D4D7F5008
:0C31140090C200EFF0A3EDF0A3EBF0225E
:030003000229F0DF
:1029F000C0E0C0F0C083C082C0D075D000C000C0AD
:0D2A000001C002C003C004C005C006C0072D
:102A0D00903DE0E4F0C2AF90C020E0903DE0F0E0FA
:102A1D00FF30E70790E608E04408F0EF30E00312DE
:102A2D002698903DE0E030E30D90E012E030E506B1
:082A3D00903E8D7401F0D2AF50
:102A4500D007D006D005D004D003D002D001D000E5
:0B2A5500D0D0D082D083D0F0D0E0328F
:03003B000223821B
:10238200C0E0C0F0C083C082C0D075D000C000C021
:1023920004C005C006C007C2AF90C220740FF090FF
:1023A200C233E0903DB2F090C232E0903DB1F09085
:1023B200C231E0903DB0F090C230E0903DAFF0907D
:1023C200C23EE0903E7CF090C23DE0903E7DF090B7
:1023D200C23CE0903E7EF090C23FE0903E7BF090A7
:1023E200C23BE0903E6AF090C23AE0903E6BF090C1
:1023F200C238E0903E70F090C237E0903E71F090AB
:10240200C236E0903E72F090C235E0903E73F0909A
:10241200C234E0903E74F0903E6AE075F064A4FF2E
:10242200A3E07C002FFFEC35F0FEE4FDA312199926
:1024320090C101E04401F0E04401F0903E8E74014D
:10244200F0D2AFD007D006D005D004D000D0D0D083
:0824520082D083D0F0D0E0320B
:030043000230DCAC
:1030DC00C0E0C083C082C2AF90C220740FF0D2AFE8
:0730EC00D082D083D0E03256
:03004B000230F38D
:1030F300C0E0C083C082C2AF90C220740FF0D2AFD1
:07310300D082D083D0E0323E
:030053000230C2B6
:1030C200C0E0C083C082C2AF75910090C220740F6D
:0A30D200F0D2AFD082D083D0E032FC
:05003E00D2E8D2AF2260
:05004600D2E9D2AF2257
:05004E00D2EAD2AF224E
:05324800D2EBD2AF2221
:10286200022B90E493A3F8E493A34003F68001F2D1
:1028720008DFF48029E493A3F85407240CC8C33377
:10288200C4540F4420C8834004F456800146F6DF46
:10289200E4800B010204081020408090108FE47E37
:1028A200019360BCA3FF543F30E509541FFEE4933B
:1028B200A360010ECF54C025E060A840B8E493A302
:1028C200FAE493A3F8E493A3C8C582C8CAC583CA2D
:1028D200F0A3C8C582C8CAC583CADFE9DEE780BEE5
:0115C8000022
:1015C900E709F608DFFA8046E709F208DFFA803E04
:1015D90088828C83E709F0A3DFFA8032E309F608F1
:1015E900DFFA8078E309F208DFFA807088828C8359
:1015F900E309F0A3DFFA806489828A83E0A3F6080D
:10160900DFFA805889828A83E0A3F208DFFA804CE6
:1016190080D280FA80C680D4806980F280338010BD
:1016290080A680EA809A80A880DA80E280CA803326
:1016390089828A83ECFAE493A3C8C582C8CCC5839E
:10164900CCF0A3C8C582C8CCC583CCDFE9DEE7806E
:101659000D89828A83E493A3F608DFF9ECFAA9F0ED
:10166900EDFB2289828A83ECFAE0A3C8C582C8CC43
:10167900C583CCF0A3C8C582C8CCC583CCDFEADE5C
:10168900E880DB89828A83E493A3F208DFF980CCBE
:1016990088F0EF60010E4E60C388F0ED2402B404B7
:1016A9000050B9F582EB2402B4040050AF2323455E
:0616B90082239016197354
:1016BF00BB010689828A83E0225002E722BBFE0229
:0916CF00E32289828A83E493225C
:1016D800BB010CE58229F582E5833AF583E02250C7
:1016E80006E92582F8E622BBFE06E92582F8E22211
:0D16F800E58229F582E5833AF583E493222B
:10170500BB010FF8E58229F582E5833AF583E028E8
:10171500F0225009C58229F8E58226F622BBFE098A
:10172500C58229F8E22582F222F8EA2583F583E9C4
:03173500932822D4
:10173800BB010689828A83F0225002F722BBFE0190
:02174800F3228A
:10174A00F8BB010DE58229F582E5833AF583E8F0D5
:10175A00225006E92582C8F622BBFE05E92582C881
:02176A00F22269
:10176C00BB0110E58229F582E5833AF583E0F5F0BB
:10177C00A3E0225009E92582F886F008E622BBFE98
:10178C000AE92582F8E2F5F008E222E5832AF583DE
:08179C00E993F5F0A3E99322A3
:1017A400F8BB0111E58229F582E5833AF583E8F077
:1017B400E5F0A3F0225009E92582C8F608A6F02234
:0D17C400BBFE09E92582C8F2E5F008F2221B
:1017D10075F008758200EF2FFFEE33FECD33CDCCCF
:1017E10033CCC58233C5829BED9AEC99E582984052
:1017F1000CF582EE9BFEED9AFDEC99FC0FD5F0D62F
:10180100E4CEFBE4CDFAE4CCF9A88222B800C1B958
:101811000059BA002DEC8BF084CFCECDFCE5F0CB96
:10182100F97818EF2FFFEE33FEED33FDEC33FCEBCF
:1018310033FB10D703994004EB99FB0FD8E5E4F98A
:10184100FA227818EF2FFFEE33FEED33FDEC33FC77
:10185100C933C910D7059BE99A4007EC9BFCE99A6B
:10186100F90FD8E0E4C9FAE4CCFB2275F010EF2FB0
:10187100FFEE33FEED33FDCC33CCC833C810D707B0
:101881009BEC9AE899400AED9BFDEC9AFCE899F8EB
:0E1891000FD5F0DAE4CDFBE4CCFAE4C8F9227E
:10189F00EB9FF5F0EA9E42F0E99D42F0E89C45F09F
:0118AF002216
:1018B000E8600FECC313FCED13FDEE13FEEF13FF16
:0318C000D8F1223A
:1018C300E8600FEFC333FFEE33FEED33FDEC33FC83
:0318D300D8F12227
:1018D600BB010789828A83021A3E5005E9F8021A7B
:1018E60032BBFE05E9F8021A4A89828A83021A5631
:1018F600BB010DE58229F582E5833AF583021A3E9E
:101906005007E92582F8021A32BBFE07E92582F85C
:10191600021A4AE58229F582E5833AF583021A56C8
:10192600BB010789828A830219995005E9F8021AD0
:0A19360066BBFE05E9F8021A7222F2
:10194000BB010DE58229F582E5833AF583021999F9
:101950005007E92582F8021A66BBFE07E92582F8DE
:04196000021A7222D3
:101964007401FF3395E0FEFDFCA3A3A3E0CF2FF0A9
:10197400E582158270021583E0CE3EF0E582158281
:1019840070021583E0CD3DF0E58215827002158367
:05199400E0CC3CF02254
:0C199900ECF0A3EDF0A3EEF0A3EFF022C1
:1019A500A8828583F0D083D0821219BC1219BC128B
:1019B50019BC1219BCE473E493A3C583C5F0C583B0
:1019C500C8C582C8F0A3C583C5F0C583C8C582C88C
:0119D50022EF
:0C19D600A42582F582E5F03583F583221C
:1019E200BB010789828A83021A875005E9F8021A25
:1019F2007EBBFE05E9F8021A9089828A83021A994F
:101A0200BB010DE58229F582E5833AF583021A8747
:101A12005007E92582F8021A7EBBFE07E92582F803
:101A2200021A90E58229F582E5833AF583021A9932
:0C1A3200E6FC08E6FD08E6FE08E6FF22E0
:0C1A3E00E0FCA3E0FDA3E0FEA3E0FF221B
:0C1A4A00E2FC08E2FD08E2FE08E2FF22D8
:101A5600E493FC740193FD740293FE740393FF22D6
:0C1A6600ECF608EDF608EEF608EFF622AC
:0C1A7200ECF208EDF208EEF208EFF222B0
:091A7E00E6FB08E6FA08E6F9228D
:091A8700E0FBA3E0FAA3E0F92260
:091A9000E2FB08E2FA08E2F92287
:0C1A9900E493FB740193FA740293F922A9
:00000001FF
