:030000000227FFD5
:0C27FF00787FE4F6D8FD758107022846BB
:102A5B006E6563006C6162003530353630006B6635
:102A6B00006C6F67696300737263006E736500724D
:102A7B006335007263355F780000000000000000D2
:102A8B00000000000000000000000000000000003B
:102A9B00000000000000000000000000000000002B
:102AAB00000000000000000000000000000000001B
:092ABB0000000000000000000012
:10108F00413BED00413BEE00413957005B3D94FF82
:10109F002A5BFF2A5FFF2A63FF2A69FF2A6CFF2A58
:1010AF0072FF2A76FF2A7AFF2A7E60223C7C00029A
:1010BF000202020202020202020202020202020201
:1010CF0002020202020202020202020202020206ED
:1010DF00423BEF0306603B38BF00091898002328F6
:1010EF00919401F4070000000000000202308230EA
:1010FF0000C80202308690012C03232888CA01F40D
:10110F00040230CE2003E80501F4BA9803E8013C4D
:10111F007C013BEF4C3D160001020202020202026B
:10112F00020206603B385201018C980001189C8422
:10113F00008C010118980605DC02011892AC01F42D
:10114F000201189C8401F407000000000000070052
:10115F0000000000000501F4BA9803E8013D1600F5
:10116F000000543B3100020202020202020201029D
:10117F00020202020202020106603B3C190209044C
:10118F00980020D0906801F4010208906801F402E1
:10119F000208841A01F4020208883401F4070000DF
:1011AF0000000000070000000000000501F4BA98DD
:1011BF0003E8013B310000006032388D000202026B
:1011CF0002020202020202020202020202020202F0
:1011DF0002020202020202020202020202020202E0
:1011EF000202020202020202020202020206603B35
:1011FF0039F60302BE20000E38870801F4070000FD
:10120F000000000002017C817C009602017C854673
:10121F00012C070000000000000700000000000084
:10122F000501F4CE2003E801388D0000004E3BB7D6
:10123F000002020202020202020202020206603BE6
:10124F003CDB04007D20001388938801F407000025
:10125F00000000000200FA81F400640201F483E848
:10126F0000C8070000000000000700000000000099
:10127F000501F4CE2003E8013BB7000000602B3DD1
:10128F0069000202020202020202020202020202CA
:10129F000202020202020202020201020202020220
:1012AF00020202020202020202020206603B39BB84
:1012BF000509186000177087D00190010E388E381D
:1012CF000190020230823000C80202308460012C8B
:1012DF0007000000000000070000000000000502EA
:1012EF0030CE2003E8013D69000000602B3D3D003A
:1012FF0002020202020202020202020202020202BF
:10130F0002020202020202020002020202020202B0
:10131F0002020202020202020206423CD9030660E6
:10132F003B398006091860000E38870801900700C6
:10133F000000000000020230823000C80202308438
:10134F0060012C030E388E3801F4040230CE2003D6
:10135F00E8050230CE2003E8013D3D013CD94F3B6B
:10136F0080000001020202020202020202020206D1
:10137F00603B3C9E0711C89800833E033E00C801A6
:10138F00833E033E00C802033E833E00C802833EF5
:10139F00033E00C807000000000000070000000027
:1013AF00000005833E3A9803E8013B800000004DA2
:1013BF00394A000202020202020202020202026023
:1013CF003B3B450711C89800833E033E00C801838D
:1013DF003E033E00C802033E833E00C802833E0325
:1013EF003E00C807000000000000070000000000DA
:1013FF000005833E3A9803E801394A00000060284F
:10140F00382A0138BF000000000000000000000073
:10141F0000000000000000000000000000000000BD
:10142F0000000000000000000000602838020138B2
:10143F00520000000000000000000000000000004B
:10144F00000000000000000000000000000000008D
:10145F0000000000000060283BC5013C190000009F
:10146F00000000000000000000000000000000006D
:10147F00000000000000000000000000000000005D
:10148F000000602839580139F60000000000000004
:10149F00000000000000000000000000000000003D
:1014AF0000000000000000000000000000006028A5
:1014BF003C54013CDB000000000000000000000075
:1014CF00000000000000000000000000000000000D
:1014DF0000000000000000000000602839220139E0
:1014EF00BB00000000000000000000000000000032
:1014FF0000000000000000000000000000000000DD
:10150F00000000000000602838FA01398000000058
:10151F0000000000000000000000000000000000BC
:10152F0000000000000000000000000000000000AC
:10153F00000060283BF1013C9E000000000000000D
:10154F00000000000000000000000000000000008C
:10155F0000000000000000000000000000006028F4
:10156F003B8F013B45000000000000000000000021
:10157F00000000000000000000000000000000005C
:10158F00000000000000000000005B3D2201382A2F
:10159F00013802013BC5013958013C540139220180
:0D15AF0038FA013BF1013B8F42380000008B
:0F1F2200903E43EBF0A3EAF0A3E9F0A31219A558
:101F3100784B7C3E7D017BFF7A2A79847E007F107D
:101F41001216A5785B7C3E7D017BFF7A2A79947E0F
:061F5100007F101216A52E
:101F5700E4903E6BF0A3F0903E43E0FBA3E0FAA3CE
:101F6700E0F9903E6BE0FEA3E0FFF5828E83121648
:101F7700E4FD744B2FF582743E3EF583EDF0903E01
:101F87006CE004F07006903E6BE004F0903E6BE06E
:081F97007004A3E0641070BFA8
:101F9F00E4903E4AF0903E4AE0FFE4FCFDFE903EA6
:101FAF0046E0F8A3E0F9A3E0FAA3E0FBD31218ABE5
:101FBF0050030220CDE47F01FEFDFC903E4AE0FB82
:101FCF00541FF9F81218CFEBC413540725E025E07E
:101FDF00244BF582E4343EF583E0F8A3E0F9A3E067
:101FEF00FAA3E05FFFEA5EFEE95DFDE85C4D4E4F50
:101FFF0070030220C4903E46E0FCA3E0FDA3E0FE88
:10200F00A3E024FFFFEE34FFFEED34FFFDEC34FFC1
:10201F00FCC007A3D007C3EF9BFFEE9400FEED9427
:10202F0000FDEC9400FCE47B20FAF9F812181990EB
:10203F003E5B75F004EF1219E2EE25E025E02583F3
:10204F00F583C083C082E0F8A3E0F9A3E0FAA3E030
:10205F00FBC000C001C002C003903E46E0FCA3E0FD
:10206F00FDA3E0FEA3E024FFFFEE34FFFEED34FFFF
:10207F00FDEC34FFFCC007A3E0FBD007C3EF9BFFD1
:10208F00EE9400ED9400EC9400EF541FFFE4A907C9
:10209F007F01FEFDFCA8011218CFD003D002D001A2
:1020AF00D000EB4FFFEA4EFEE94DFDE84CFCD0822D
:0E20BF00D0831219A5903E4AE004F0021FA43F
:1020CD00E4903E6BF0A3F0903E6BE0FEA3E0FF24A6
:1020DD005BF582743E3EF583E0FD903E43E0FBA34D
:1020ED00E0FAA3E0F98F828E83ED121756903E6CC5
:1020FD00E004F07006903E6BE004F0903E6BE070F3
:07210D0004A3E0641070C0A0
:0121140022A8
:0E1AB100903E43EBF0A3EAF0A3E9F0A3EDF0C2
:101ABF0078477C3E7D017BFF7A2A79A47E007F10D8
:101ACF001216A578577C3E7D017BFF7A2A79B47E6A
:101ADF00007F101216A5903E46E0240713131354EF
:051AEF001F903E67F0AE
:101AF400E4A3F0A3F0903E43E0FBA3E0FAA3E0F9F3
:101B0400903E68E0FEA3E0FFF5828E831216E4FDAA
:101B140074472FF582743E3EF583EDF0903E69E004
:101B240004F07006903E68E004F0903E68E07004B3
:061B3400A3E0641070BF85
:101B3A00903E4AE0903E57F0903E49E0903E58F081
:101B4A00903E48E0903E59F0903E47E0903E5AF071
:101B5A00903E4EE0903E5BF0903E4DE0903E5CF051
:101B6A00903E4CE0903E5DF0903E4BE0903E5EF041
:101B7A00903E52E0903E5FF0903E51E0903E60F021
:101B8A00903E50E0903E61F0903E4FE0903E62F011
:101B9A00903E56E0903E63F0903E55E0903E64F0F1
:101BAA00903E54E0903E65F0903E53E0903E66F0E1
:101BBA00E4903E68F0A3F0903E68E0FEA3E0FF24C4
:101BCA0057F582743E3EF583E0FD74472FF5827423
:101BDA003E3EF583EDF0903E69E004F07006903EDB
:101BEA0068E004F0903E68E07004A3E0641070C7F7
:101BFA00E4FF903E67E0FEEFC39E5025EFFDEEC383
:101C0A009DFDE49400FC74462DF582743E3CF583F8
:101C1A00E0FE74572FF582E4343EF583EEF00F8030
:101C2A00D1903E5AE0903E47F0903E59E0903E48AF
:101C3A00F0903E58E0903E49F0903E57E0903E4A80
:101C4A00F0903E5EE0903E4BF0903E5DE0903E4C60
:101C5A00F0903E5CE0903E4DF0903E5BE0903E4E50
:101C6A00F0903E62E0903E4FF0903E61E0903E5030
:101C7A00F0903E60E0903E51F0903E5FE0903E5220
:101C8A00F0903E66E0903E53F0903E65E0903E5400
:101C9A00F0903E64E0903E55F0903E63E0903E56F0
:011CAA00F049
:101CAB00E4903E68F0A3F0903E68E0FEA3E0FF24D2
:101CBB0047F582743E3EF583E0FD903E43E0FBA387
:101CCB00E0FAA3E0F98F828E83ED121756903E69EE
:101CDB00E004F07006903E68E004F0903E68E0701F
:071CEB0004A3E0641070C0C7
:011CF20022CF
:10005600903E0C1219A5903E09EBF0A3EAF0A3E935
:01006600F0A9
:10006700903E141219B100000000903E187403F07E
:10007700903E371219B15A5A55AA1219EE9000023A
:100087001216E4FFE4FCFDFE903E0CE0F8A3E0F955
:10009700A3E0FAA3E0FBC31218AB5015903E09E0AA
:1000A700FBA3E0FAA3E0F9900003E412175602104D
:1000B70088903E09E0FBA3E0FAA3E0F99000031261
:1000C70016E460030202629000041216E460030261
:0200D70001EF37
:1000D9001219EE900005121778E5F0903E0930E705
:1000E90010E0FBA3E0FAA3E0F91219EE90000780F3
:1000F9000EE0FBA3E0FAA3E0F91219EE9000051255
:100109001778FBAAF0EA5480FE7F00E4FCFD903EDC
:100119003B1219A5EA547FFEAF03E4FCFD903E3F74
:100129001219A5903E10E0FCA3E0FDA3E0FEA3E0B8
:10013900FF780F1218CF903E3BE0F8A3E0F9A3E057
:10014900FAA3E06FFFEA6EFEE96DFDE86CFC4D4E27
:100159004F6003021088903E09E0FBA3E0FAA3E098
:10016900F91219EE900009121778AEF0FBAA069061
:100179003E3FE0FCA3E0FDA3E0FEA3E0C39BFFEE4E
:100189009AFEED9400FDEC9400FC903E0CE0F8A37F
:10019900E0F9A3E0FAA3E0FBD31218AB4045903E87
:1001A90009E0FBA3E0FAA3E0F91219EE90000912A5
:1001B9001778FFE4FCFD903E3FE0F8A3E0F9A3E0E7
:1001C900FAA3E02FFFEA35F0FEED39FDEC38FC909B
:1001D9003E0CE0F8A3E0F9A3E0FAA3E0FBC3121890
:0601E900AB400302108888
:1001EF00903E09E0FBA3E0FAA3E0F990000374014D
:1001FF00121756903E0EE0FFA3E0900006CF8FF04F
:10020F001217B09000041216E47045903E09E0FBFF
:10021F00A3E0FAA3E0F91219EE900005121778E5A2
:10022F00F030E7047F0180027F00EF6023903E09EA
:10023F00E0FBA3E0FAA3E0F9900003E41217569055
:10024F000006E4F5F01217B09000047401121711B4
:10025F00021088903E09E0FBA3E0FAA3E0F99000BA
:10026F0006121778FFE4FCFD903E0CE0F8A3E0F9CE
:10027F00A3E0FAA3E02FFFEA35F0FEED39FDEC38ED
:10028F00FC903E141219A5903E09E0FBA3E0FAA3DF
:10029F00E0F9900006E4F5F01217B0900003E412B5
:1002AF0017561219EE900035121A0EEA494B7003C9
:1002BF00020D68903E09E0FBA3E0FAA3E0F91219E2
:1002CF00EE900035121A0EC003C002C001903E0915
:1002DF00E0FBA3E0FAA3E0F99000041216E4FFD0CC
:1002EF0001D002D003F5827583001216E4FE903E12
:1002FF0019F0903E09E0FBA3E0FAA3E0F91219EE22
:10030F00900035121A0EEFF582758300A31216E4D2
:10031F00903E1AF0EED394024006903E19E004F09E
:10032F00903E09E0FBA3E0FAA3E0F91219EE903E2C
:10033F0019E075F007A429F9EA35F0FA90000712D1
:10034F001778FFE5F0547FFE900005121778FDE552
:10035F00F0547FFCED2FFFEC3EFEE4FCFD903E1FC2
:10036F001219A5900009121778FFAEF0E4FCFD906A
:10037F003E231219A5900007121778E5F05480FE5E
:10038F007F00E4FCFDC004C005C006C007903E100E
:10039F00E0FCA3E0FDA3E0FEA3E0FF780F1218CF6F
:1003AF00D003D002D001D000EF6BFFEE6AFEED69F3
:1003BF00FDEC684D4E4F70047F0180027F00E4FC1E
:1003CF00FDFE903E271219A5903E09E0FBA3E0FA2F
:1003DF00A3E0F91219EE1216CB640760030204A50D
:1003EF00903E1FE0F8A3E0F9A3E0FAA3E0FBC00002
:1003FF00C001C002C003903E09E0FBA3E0FAA3E0F6
:10040F00F91219EE903E1AE075F007A429F9EA35B2
:10041F00F0FA900005121778FFE5F0547FFEE4FC28
:10042F00FDD003D002D001D000EB2FFFEA3EFEED4E
:10043F0039FDEC38FC903E1F1219A5903E23E0F8D1
:10044F00A3E0F9A3E0FAA3E0FBC000C001C002C023
:10045F0003903E09E0FBA3E0FAA3E0F91219EE9036
:10046F003E1AE075F007A429F9EA35F0FA90000575
:10047F00121778FFE5F0547FFEE4FCFDD003D002A5
:10048F00D001D000EB2FFFEA3EFEED39FDEC38FC3A
:10049F00903E231219A5903E09E0FBA3E0FAA3E0DA
:1004AF00F91219EE900035121A0EC003C002C001E6
:1004BF00903E09E0FBA3E0FAA3E0F99000041216C6
:1004CF00E4D001D002D003F5827583001216E464E4
:1004DF00026003020801903E09E0FBA3E0FAA3E0EB
:1004EF00F91219EE90001C121778FFE5F0547FFEF9
:1004FF0090001A121778FDE5F0547FFCED2FFFECFA
:10050F003EFEE4FCFD903E2B1219A590001E121723
:10051F0078FFAEF0E4FCFD903E2F1219A590001C61
:10052F00121778E5F05480FE7F00E4FCFDC004C094
:10053F0005C006C007903E10E0FCA3E0FDA3E0FE5F
:10054F00A3E0FF780F1218CFD003D002D001D00054
:10055F00EF6BFFEE6AFEED69FDEC684D4E4F7004D8
:10056F007F0180027F00E4FCFDFE903E331219A54F
:10057F00903E09E0FBA3E0FAA3E0F91219EE121680
:10058F00CB64076003020631903E2BE0F8A3E0F93D
:10059F00A3E0FAA3E0FBC000C001C002C003903E7D
:1005AF0009E0FBA3E0FAA3E0F91219EE90001A128A
:1005BF001778FFE5F0547FFEE4FCFDD003D002D0A6
:1005CF0001D000EB2FFFEA3EFEED39FDEC38FC9039
:1005DF003E2B1219A5903E2FE0F8A3E0F9A3E0FA05
:1005EF00A3E0FBC000C001C002C003903E09E0FBC6
:1005FF00A3E0FAA3E0F91219EE90001A121778FF90
:10060F00E5F0547FFEE4FCFDD003D002D001D00012
:10061F00EB2FFFEA3EFEED39FDEC38FC903E2F123A
:10062F0019A5903E09E0FBA3E0FAA3E0F91219EE39
:10063F009000011216E4FFC4540F30E030900035E3
:10064F00121A0EC003C002C001903E09E0FBA3E0E6
:10065F00FAA3E0F99000041216E4F582758300A363
:10066F00D001D002D0031216E464066074903E23CA
:10067F00E0F8A3E0F9A3E0FAA3E0FB903E1FE0FC53
:10068F00A3E0FDA3E0FEA3E0C39BFFEE9AFEED996E
:10069F00FDEC98FC903E14E0F8A3E0F9A3E0FAA378
:1006AF00E0FBD31218AB405F903E23E0FCA3E0FDCC
:1006BF00A3E0FEA3E0FF903E1FE0F8A3E0F9A3E064
:1006CF00FAA3E02FFFEA3EFEE93DFDE83CFC903E39
:1006DF0014E0F8A3E0F9A3E0FAA3E0C31218AB50BB
:1006EF0026903E27E0FCA3E0FDA3E0FEA3E0FFEC95
:1006FF004D4E4F60047F0180027F00EF6009903EF6
:10070F00187401F00208B5903E09E0FBA3E0FAA3CC
:10071F00E0F91219EE9000011216E4FFC4540F30E5
:10072F00E030900035121A0EC003C002C001903E97
:10073F0009E0FBA3E0FAA3E0F99000041216E4F538
:10074F0082758300A3D001D002D0031216E4640691
:10075F006077903E2FE0F8A3E0F9A3E0FAA3E0FB67
:10076F00903E2BE0FCA3E0FDA3E0FEA3E0C39BFFC4
:10077F00EE9AFEED99FDEC98FC903E14E0F8A3E0A4
:10078F00F9A3E0FAA3E0FBD31218AB50030208AFB2
:10079F00903E2FE0FCA3E0FDA3E0FEA3E0FF903E20
:1007AF002BE0F8A3E0F9A3E0FAA3E02FFFEA3EFE67
:1007BF00E93DFDE83CFC903E14E0F8A3E0F9A3E02E
:1007CF00FAA3E0C31218AB5026903E33E0FCA3E02F
:1007DF00FDA3E0FEA3E0FFEC4D4E4F60047F0180D0
:1007EF00027F00EF6009903E187402F00208B50214
:1007FF0008AF903E23E0F8A3E0F9A3E0FAA3E0FBF3
:10080F00903E1FE0FCA3E0FDA3E0FEA3E0C39BFF2F
:10081F00EE9AFEED99FDEC98FC903E14E0F8A3E003
:10082F00F9A3E0FAA3E0FBD31218AB4073903E2379
:10083F00E0FCA3E0FDA3E0FEA3E0FF903E1FE0F885
:10084F00A3E0F9A3E0FAA3E02FFFEA3EFEE93DFDA6
:10085F00E83CFC903E14E0F8A3E0F9A3E0FAA3E033
:10086F00C31218AB503A903E09E0FBA3E0FAA3E0A5
:10087F00F91219EE1216CBB40709903E19E0B40124
:10088F00028014903E27E0FCA3E0FDA3E0FEA3E06E
:10089F00FFEC4D4E4F6007E4903E18F0800880004B
:1008AF00903E187403F0903E18E0FF600C640160F6
:1008BF0008EF64026003020C79903E09E0FBA3E0AD
:1008CF00FAA3E0F99000047401121711EF640160AC
:1008DF000B903E18E064026003020994903E18E00A
:1008EF0064026003020981E92408F9E43AFAC003BB
:1008FF00C002C001903E09E0FBA3E0FAA3E0F9902B
:10090F0000051216E4FFC4135407D001D002D00320
:10091F0075F004A485F08329F9E5833AFAC003C082
:10092F0002C0011218E2C004C005C006C007903E05
:10093F0009E0FBA3E0FAA3E0F99000051216E454D6
:10094F001FF9E47F01FEFDFCA8011218CFA804A92E
:10095F0005AA06AB07D007D006D005D004EF4BFF92
:10096F00EE4AFEED49FDEC48FCD001D002D0031257
:10097F001932903E09E0FBA3E0FAA3E0F9900005DD
:10098F007401121711903E09E0FBA3E0FAA3E0F9FE
:10099F001219EE1216CB64076003020A8E903E1AEC
:1009AF00E075F007A429F9EA35F0FA90000912175B
:1009BF0078AEF0FBAA06903E1FE0FCA3E0FDA3E09B
:1009CF00FEA3E0C39BFFEE9AFEED9400FDEC9400B6
:1009DF00FC903E14E0F8A3E0F9A3E0FAA3E0FBD308
:1009EF001218AB5003020A8E903E09E0FBA3E0FA07
:1009FF00A3E0F91219EE903E1AE075F007A429F959
:100A0F00EA35F0FA900009121778FFE4FCFD903EEA
:100A1F001FE0F8A3E0F9A3E0FAA3E02FFFEA35F017
:100A2F00FEED39FDEC38FC903E14E0F8A3E0F9A39D
:100A3F00E0FAA3E0FBC31218AB5044903E09E0FB71
:100A4F00A3E0FAA3E0F990000374011217561219EC
:100A5F00EE903E1AE075F007A429F9EA35F0FA9006
:100A6F000005121778FFE5F0547FFE903E09E0FB7A
:100A7F00A3E0FAA3E0F9900006EE8FF01217B09002
:100A8F003E09E0FBA3E0FAA3E0F91219EE9000355E
:100A9F00121A0EC003C002C001903E09E0FBA3E092
:100AAF00FAA3E0F99000041216E4D001D002D003AB
:100ABF00F5827583001216E464066003020C7690CB
:100ACF003E1B1219B1FFFFFFFF903E09E0FBA3E0B1
:100ADF00FAA3E0F91219EE9000011216E430E02F9C
:100AEF00903E09E0FBA3E0FAA3E02408F9E43AFA08
:100AFF00C002C001903E09A3E0FAA3E0F9900005FF
:100B0F001216E4FFE4FCFDFED001D002121F22906A
:100B1F003E09E0FBA3E0FAA3E0F91219EE90000101
:100B2F001216E4FFC31330E02B903E09E0FBA3E065
:100B3F00FAA3E02408F9E43AFAC002C001903E0992
:100B4F00A3E0FAA3E0F99000051216E4FDD001D05E
:100B5F0002121AB1903E09E0FBA3E0FAA3E0F9906C
:100B6F000004E4121756900005E41217569000186F
:090B7F00121902903E1B1219A587
:100B8800E4903E3BF0A3F0903E09E0FBA3E0FAA31B
:100B9800E02408F9E43AFA903E3BE0FEA3E0FF299E
:100BA800F9EA3EFA1216CBFD903E09A3E0FAA3E05B
:100BB8002418F9E43AFAE92FF9EA3EFAED12174453
:100BC800903E3CE004F07006903E3BE004F0903E1E
:0A0BD8003BE07004A3E0641070AD70
:100BE200E4903E3BF0A3F0903E3BE0FEA3E0FFC367
:100BF2009410EE64809480502A903E09E0FBA3E0BA
:100C0200FAA3E02408F9E43AFAE92FF9EA3EFAE411
:100C1200121744903E3CE004F070CC903E3BE0045E
:030C2200F080C49B
:100C2500903E09E0FBA3E0FAA3E0F9900018121941
:100C350002903E1BE0F8A3E0F9A3E0FAA3E0FBC3B2
:100C45001218AB7019903E09E0FBA3E0FAA3E0F996
:100C55001219EE900038121A0EE94A4B6005E4901D
:100C65003D68F0903E09E0FBA3E0FAA3E0F9020F2E
:100C750001021088903E18E064036003020D09909C
:100C85003E09E0FBA3E0FAA3E0F99000041216E4A4
:100C9500FF7E00900004E4121756900005E4121739
:010CA50056F8
:100CA600E4903E3BF0A3F0903E3BE0FCA3E0FDC3A6
:100CB6009410EC64809480502A903E09E0FBA3E0F7
:100CC600FAA3E02408F9E43AFAE92DF9EA3CFAE451
:100CD600121744903E3CE004F070CC903E3BE0049A
:030CE600F080C4D7
:100CE900903E09E0FBA3E0FAA3E0F91219EE9000A7
:100CF90035121A0E8F828E831216E46062021088F2
:100D0900903E09E0FBA3E0FAA3E0F9900004E412A5
:090D19001756900005E41217566C
:100D2200E4903E3BF0A3F0903E3BE0FEA3E0FFC325
:100D32009410EE64809480502A903E09E0FBA3E078
:100D4200FAA3E02408F9E43AFAE92FF9EA3EFAE4D0
:100D5200121744903E3CE004F070CC903E3BE0041D
:030D6200F080C45A
:100D6500021088903E09E0FBA3E0FAA3E0F912190E
:100D7500EE9000011216E4FF131313541F20E00335
:100D8500020FD0900038121A0EEA494B7003020F79
:010D9500D08D
:100D9600903E09E0FBA3E0FAA3E0F91219EE9000F9
:100DA60038121A0EC003C002C001903E09E0FBA330
:100DB600E0FAA3E0F99000041216E4D001D002D0C4
:100DC60003F5827583001216E404903E3BF0903ED4
:100DD60009E0FBA3E0FAA3E0F91219EE903E3BE02E
:100DE60075F007A429F9EA35F0FA9000071217788A
:100DF600FFE5F0547FFE900005121778FDE5F054EC
:100E06007FFCED2FFFEC3EFE900009121778FDC324
:100E1600EF9DFFEE95F0FEE4FCFD903E14E0F8A396
:100E2600E0F9A3E0FAA3E0FBD31218AB4064903ECE
:100E360009E0FBA3E0FAA3E0F91219EE903E3BE0CD
:100E460075F007A429F9EA35F0FA90000712177829
:100E5600FFE5F0547FFE900005121778FDE5F0548B
:100E66007FFCED2FFFEC3EFE9000091217782FFF56
:100E7600EE35F0FEE4FCFD903E14E0F8A3E0F9A3A5
:100E8600E0FAA3E0FBC31218AB5007E4903E18F05B
:100E96008006903E187403F0903E18E07066903E0F
:100EA60009E0FBA3E0FAA3E0F9900004740112172D
:100EB600111219EE900038121A0EC003C002C001BA
:100EC600903E09E0FBA3E0FAA3E0F99000041216B5
:100ED600E4D001D002D003F5827583001216E4B483
:100EE600061F903E09E0FBA3E0FAA3E0F990000498
:100EF600E4121756900005E41217569000180219CE
:100F060002021088903E18E06403705F903E09E08C
:100F1600FBA3E0FAA3E0F9900004E4121756900050
:050F260005E41217565E
:100F2B00E4903E3CF0A3F0903E3CE0FEA3E0FFC318
:100F3B009410EE64809480502A903E09E0FBA3E06D
:100F4B00FAA3E02408F9E43AFAE92FF9EA3EFAE4C5
:100F5B00121744903E3DE004F070CC903E3CE00410
:030F6B00F080C44F
:100F6E00021088903E09E0FBA3E0FAA3E0F990009E
:0C0F7E0004E4121756900005E412175608
:100F8A00E4903E3CF0A3F0903E3CE0FEA3E0FFC3B9
:100F9A009410EE64809480502A903E09E0FBA3E00E
:100FAA00FAA3E02408F9E43AFAE92FF9EA3EFAE466
:100FBA00121744903E3DE004F070CC903E3CE004B1
:030FCA00F080C4F0
:030FCD0002108887
:100FD000903E09E0FBA3E0FAA3E0F91219EE9000BD
:100FE000031216E4FFE4FCFDFE903E14E0F8A3E0DB
:100FF000F9A3E0FAA3E0FBC31218AB501B903E1616
:10100000E0FEA3E0FF903E09E0FBA3E0FAA3E0F9D5
:10101000900006EE8FF08011903E09E0FBA3E0FA0D
:10102000A3E0F9900006E4F5F01217B0903E09E055
:10103000FBA3E0FAA3E0F9900004E4121756900035
:0510400005E412175643
:10104500E4903E3BF0A3F0903E3BE0FEA3E0FFC3FF
:101055009410EE64809480502A903E09E0FBA3E052
:10106500FAA3E02408F9E43AFAE92FF9EA3EFAE4AA
:10107500121744903E3CE004F070CC903E3BE004F7
:03108500F080C434
:0610880074FFFFFEFDFCF9
:01108E00223F
:06261B00903DFC1219A520
:10262100903E051219B1FFFFFFFFE4903E04F090C8
:102631003E04E0FFC3940840030226C4EF75F00393
:10264100A42422F582E4343DF583E0FBA3E0FAA360
:10265100E0F9903E00E0FCA3E0FDA3E0FEA3E0FF73
:10266100903E101219A5903DFCE0FCA3E0FDA3E013
:10267100FEA3E0FF120056903E051219A574FFFF5C
:10268100FEFDFC903E05E0F8A3E0F9A3E0FAA3E02B
:10269100FBC31218AB6023E4FFFEFDFC903E05E096
:1026A100F8A3A3A3E0C31218AB600F903E05E0FCB2
:1026B100A3E0FDA3E0FEA3E0FF22903E04E004F0CE
:1026C100022630903E04E0B4080674FFFFFEFDFCD4
:0126D10022E6
:101CF300E4903DF5F0903DF9F0903800F0A3F090BA
:101D03003800E0FEA3E0FFC39408EE940040030212
:101D13001F14903D2275F003EF1219E2EE75F003E4
:101D2300A42583F583E0FBA3E0FAA3E0F9903DF655
:101D3300EBF0A3EAF0A3E9F0900003E41217569046
:0D1D43000004E4121756900005E412175634
:101D5000E4903DFAF0A3F0903DFAE0FEA3E0FFC36B
:101D60009410EE64809480502A903DF6E0FBA3E04E
:101D7000FAA3E02408F9E43AFAE92FF9EA3EFAE492
:101D8000121744903DFBE004F070CC903DFAE00463
:031D9000F080C41C
:101D9300903801E004F07006903800E004F0021D72
:101DA30002903BEEE0FF903BEDE06F7003021F21DA
:101DB30074312FF582E4343AF583E0903DF0F090EE
:101DC3003DEBE0F8A3E0F9A3E0FAA3E0FB903DF0DC
:101DD300E0547F75F010A4FFE4FCFDEB2FFFEA3520
:101DE300F0FEED39FDEC38FC903DEB1219A5903D6A
:101DF300F0E0FF5480C41313135401903DEFF090AF
:101E03003BEEE004F0E0B4FF02E4F0903BEEE0FED2
:101E13002431F582E4343AF583E06F20E70C903BFC
:101E2300EDE0FFEE6F6003021DA4903DEFE0FFE4E1
:101E3300FCFDFE903E001219A5903DEBE0FCA3E0F3
:101E4300FDA3E0FEA3E0FF12261B903DE71219A5B8
:101E530074FFFBFAF9F8C31218AB7003021F149056
:101E63003DE7E0FCA3E0FDA3E0FEA3E0FF903DF12E
:101E7300EFF0903DE7A3A3A3E078081218BC903DD0
:101E8300F2EFF0903DE7E0FCA3E0FDA3E0FEA3E06A
:101E9300FF78101218BC903DF3EFF0903DE7E0FCA3
:101EA300A3E0FDA3E0FEA3E0FF78181218BC903D69
:101EB300F4EFF0E4903800F0A3F0903800E0FEA3D4
:101EC300E0FFC39408EE94005047EF7802C333CE8B
:101ED30033CED8F924D0F582743F3EF583E0FCA3DA
:101EE300E0FDA3E0FEA3E0FF903DE7E0F8A3E0F907
:101EF300A3E0FAA3E0FBC31218AB700590395704B3
:101F0300F0903801E004F070B1903800E004F08004
:0E1F1300A9903DEB1219B100000000021DA4C0
:011F2100229D
:1026D20090E007E05403903DE4F0700302276CE0C1
:1026E20090E007F0903DE4E024FE60030470479020
:1026F200E001E0547F903DE5F0A3F0903DE5E0D3AA
:102702009400402990E008E0FF903BEDE0FE04F0E9
:1027120074312EF582E4343AF583EFF0903BEDE02C
:10272200B4FF02E4F0903DE5E014F080CE903DE687
:10273200E0D3940050B9903DE4E064027092121C20
:10274200F390E001E0547F903DE5F0903DE5E0D369
:102752009400400C90E008E0903DE5E014F080EB3E
:0A276200E4903BEDF0A3F00226D254
:01276C00224A
:102DD60090C090E054FEF04401F090E000E4F07FF3
:102DE60005EFF0A3748FF07F16A3EFF0A3740AF03B
:102DF60090E0077403F090E006F090C021E04401F3
:082E0600F0A3E04401F0D2A8A2
:012E0E0022A1
:0D000600903957E0B401037F00227FFF22F4
:0C15BC00413E8BA5413E8CA5413E8D00B8
:1029F00090C057E04440F090C056E054BFF090C003
:102A000054E0C413135401FF903E8BE06F6009EF54
:102A1000F0E4903E8DF08006903E8DE004F0903E14
:102A20008DE0D394144033903E8CE0FEB4A5079023
:102A30003E8BE0A3F022EE6F602090E012E0442095
:102A4000F0122D1712326812321A7B557D4D7F50CD
:0A2A500012319990C101E4F080FEFC
:012A5A002259
:102B7C00120016903E90E0B401F9E4903E90F012F1
:102B8C003158903FFFE0903DB3F07B017A3E796D78
:102B9C001229F07B017A3E796D903DB3E0FD122E47
:102BAC000F903DB77401F0A3743EF0A37478F07BE2
:102BBC00017A3E796D1222BD7B017A3E796D122E1F
:032BCC004880C777
:10318100003F71803F71005C3F065B4F666D7D07BC
:023191007F6F4E
:0A31F4007D017C00E4FFFE022CC800
:08320700E4FDFCFFFE022CC8EF
:033273000232071D
:0B31D3001231F4E4FDFCFFFE022C753D
:0B31DE007D017C007F017E00022CC8F8
:0931FE00E4FDFC7F01FE022CC877
:03322600122F1F45
:033229000231FE71
:0C31C7001231DEE4FDFC7F01FE022C75DD
:07320F00E4FF0FFE122F4F38
:013216002295
:06321F00E4FFFE122F4F38
:013225002286
:102F1F0000000000000000000000000000000000A2
:102F2F000000000000000000000000000000000092
:102F3F000000000000000000000000000000002260
:0B31E9000000000000000000000022B9
:1030F500AE071FEE6014E4FCFDED642C7003EC6478
:0A3105000160ED0DBD00010C80EF2C
:01310F00229D
:1030BA00EF1FAA0670011E4A6014E4FCFDED6410BD
:0E30CA007003EC642760E90DBD00010C80EF7F
:0130D80022D5
:102EB8001231F41231DE12327312320FEF70031234
:102EC8002F1F123229122F1F12320FEF70037F01AA
:102ED8002212321FEF70037F01221231D3122F1FEB
:062EE8001231C77F002239
:102F7D001231F41231DE1231D3123226122F1F12FA
:102F8D00320FEF70037F01221232731231E9122FCB
:0D2F9D001F12321FEF70037F01227F002200
:102FD700903DDBEEF0A3EFF01231F41231DE123147
:102FE700C7903DDBE07002A3E060051232738003F7
:0C2FF7001231D3123226122F1F0231C7F4
:10300300E4903DDBF0A3F0123207123273122F1F4C
:10301300123229122F1F12321F903DDBE4F0A3EF6F
:09302300F01231C7903DDCE0FF22
:01302C002281
:052EEE00903DD9EFF05A
:102EF300E4A3F0903DD9E030E7067F017E00800334
:102F0300E4FFFE122FD7903DD9E0FF25E0F0A3E0C8
:0B2F130004F0E0C3940840DB12300320
:012F1E002290
:082D5B00903DC5EEF0A3EFF07E
:102D6300E4A3F0A3F0903DC7E0FF25E0F0E0FEC050
:102D730006123003D0E04F903DC7F0A3E004F0E02B
:102D8300C3940840E0903DC5E0FEA3E0FF122FD7B7
:052D9300903DC7E0FFC8
:012D98002218
:10256300903DBFEBF0A3EAF0A3E9F0903DBEEFF09E
:10257300903DC4740AF0EF4401903DBEF0903DC419
:10258300E014F06018122EB8903DBEE0FF122EEE5C
:10259300EF600A122F7D7F011230F580E0903DC479
:1025A300E070037FDE22E4903DC4F0903DC3E0245D
:1025B300FFFF903DC2E034FFFE903DC4E0C39FEEB9
:1025C3006480F87480985026E4FFFE122D5B903DE2
:1025D300BFE0FBA3E0FAA3E0F9903DC4E0F5827508
:1025E3008300EF121756903DC4E004F080BD7F01D5
:1025F3007E00122D5B903DBFE0FBA3E0FAA3E0F960
:10260300903DC3E024FFFD903DC2E034FF8D82F591
:0726130083EF1217567F0050
:01261A00229D
:10288B00903DD3EBF0A3EAF0A3E9F0903DD2EFF04B
:10289B00903DD8740AF0EF54FE903DD2F0903DD8A5
:1028AB00E014F06018122EB8903DD2E0FF122EEE1D
:1028BB00EF600A122F7D7F011230F580E0903DD83A
:1028CB00E070037FDE22E4903DD8F0903DD8E0FF2E
:1028DB00D3903DD7E09F7480F8903DD6E06480980C
:1028EB004023903DD3E0FBA3E0FAA3E0F9903DD861
:1028FB00E0F5827583001216E4FF122EEE903DD8A0
:07290B00E004F080C67F002C
:0129120022A2
:1030D900903DBCE0FDA3E0903DC2CDF0A3EDF01220
:0B30E9002563EF600122122F7D7F00A5
:0130F40022B9
:0C302D007B01903DD0E4F0A304F07F6A2A
:10303900903DD0E0FDA3E0903DD6CDF0A3EDF01298
:0B304900288BEF600122122F7D7F001A
:013054002259
:102BCF0078BB7C3D7D017BFF7A3179817E007F046C
:102BDF001216A57B017A3D79BD903DD0E4F0A30498
:102BEF00F07F6E1230397B017A3D79BD903DD0E494
:102BFF00F0A304F07F6C1230397A3D79BC12302D7E
:102C0F007B017A3D79BB903DD0E4F0A304F07F685F
:032C1F0002303947
:102C220078BB7C3D7D017BFF7A3179857E007F0414
:102C32001216A57B017A3D79BD903DD0E4F0A30444
:102C4200F07F681230397A3D79BD12302D7B017ADE
:102C52003D79BD903DD0E4F0A304F07F6C12303991
:102C62007B017A3D79BD903DD0E4F0A304F07F6E04
:032C7200023039F4
:0B23AA00903DBBEBF0A3EAF0A3E9F0CC
:1023B50078C27C3D7D017BFF7A3179897E007F0A79
:1023C5001216A5903DBBE0FBA3E0FAA3E0F990004F
:1023D500091216E4FF75F00A84903DBEE5F0F0EFB2
:1023E50075F00A84A3F09000081216E4FF75F00A50
:1023F50084903DC0E5F0F0EF75F00A84FDE024C25D
:10240500F582E4343DF583E04480903DC1F0AF05AD
:1024150074C22FF9E4343DFA7B01903DD0E4F0A37A
:1024250004F07F68123039903DC0E024C2F9E434ED
:102435003DFA12302D903DBBE0FBA3E0FAA3E0F995
:1024450090000A1216E420E0097B017A3D79C11259
:10245500302F903DBFE024C2F9E4343DFA7B019072
:102465003DD0E4F0A304F07F6C123039903DBEE01E
:1024750024C2F9E4343DFA7B01903DD0E4F0A30495
:06248500F07F6E02303909
:10307800E4FFFE122E817F017E00122E817D017CED
:1030880000E4FFFE122CC87D017C007F017E000257
:023098002CC842
:102FAA00903DB8EBF0A3EAF0A3E9F0903DB7EFF05B
:102FBA00BF0203022C22903DB7E0B4010CA3E0FB50
:0D2FCA00A3E0FAA3E0F90223AA122BCF2204
:10309A007B017A3D79B7903DBCE4F0A304F07F4F01
:0F30AA001230D9903DB7E0B455037F00227FFF6D
:0130B90022F4
:102B22007E01E4903DB4F0EF602B90E610740CF05F
:102B3200A37490F0A374F9F0A374FFF090E61C74F0
:102B42000CF0A37490F0A374F9F0A374FFF090E674
:102B520018E04480F0D2AAD2AF90C025E04401F040
:102B6200A3E04401FDF0EF6005EE44948003EE44DF
:0A2B72001490E618F07F010231B75D
:1031B700EF90E6186005E04410F022E054EFF022AB
:10211500903DDDEBF0A3EAF0A3E9F0903DDDE0FBB7
:10212500A3E0FAA3E0F990000A1216E4D3943B5019
:10213500030222BC90000AE41217569000097401AC
:102145001217119000091216E4D3943B5003022292
:10215500BC903DDDE0FBA3E0FAA3E0F9900009E4C3
:1021650012175690000874011217119000081216E4
:10217500E4D3941750030222BC903DDDE0FBA3E0BD
:10218500FAA3E0F9900008E41217569000077401CD
:102195001217119000061216E4FF6401601EEF6429
:1021A500036019EF64056014EF6407600FEF6408BE
:1021B500600AEF640A6005EF640C705D903DDDE038
:1021C500FBA3E0FAA3E0F99000071216E4D3941FED
:1021D50040479000077401121756900006740112CB
:1021E50017119000061216E4D3940C402C903DDD97
:1021F500E0FBA3E0FAA3E0F990000674011217567C
:10220500900002121902EF2401FFE43EFEE43DFDB9
:10221500E43CFC90000212194C903DDDE0FBA3E08C
:10222500FAA3E0F99000061216E46402704A9000E1
:10223500071216E4D3941D400812276DEF60028043
:102245001C903DDDE0FBA3E0FAA3E0F99000071246
:1022550016E4D3941C402112276DEF701B903DDDD1
:10226500E0FBA3E0FAA3E0F990000774011217560A
:102275009000067401121711903DDDE0FBA3E0FA12
:10228500A3E0F99000061216E4FF6404600EEF6403
:10229500066009EF64096004EFB40B1B9000071298
:1022A50016E4D3941E40109000077401121756903F
:0822B50000067401121711224A
:102D17001216CB90C20AF09000011216E490C20975
:102D2700F09000061216E490C208F0900007121601
:102D3700E490C207F09000081216E490C206F090E3
:102D470000091216E490C205F090000A1216E490EA
:042D5700C204F022A0
:10276D00903DE0EBF0A3EAF0A3E9F0903DE0E0FB53
:10277D00A3E0FAA3E0F9900002121902EF5403FF4F
:10278D00E4FEFDFCFBFAF9F8C31218AB7030903D76
:10279D00E0E0FBA3E0FAA3E0F9900002121902E4D5
:1027AD007B64FAF9F8121819AC00AD01AE02AF0353
:1027BD00E4FBFAF9F8C31218AB60037F0122903DD8
:1027CD00E0E0FBA3E0FAA3E0F9900002121902E4A5
:1027DD007B907A01F9F8121819AC00AD01AE02AF79
:1027ED0003E4FBFAF9F8C31218AB70037F01227FE3
:0227FD000022B8
:03001300022AC4FA
:102AC400C0E0C0F0C083C082C0D075D000C000C0D8
:0D2AD40001C002C003C004C005C006C00759
:102AE1007E01C2AF90C024E0FF90E618E04E44089A
:102AF100F0EF30E00F903E77E004F07B017A3E7911
:062B01006D122115D2AF98
:102B0700D007D006D005D004D003D002D001D00022
:0B2B1700D0D0D082D083D0F0D0E032CC
:0C15C800413E8F00413E9000413E8E00ED
:06322C0090C055EFF022F6
:0532320090C054E0FF14
:013237002274
:0532380090C056E0FF0C
:01323D00226E
:06323E0090C056EFF022E3
:0632440090C057EFF022DC
:06324A0090C05DEFF022D0
:0532500090C05CE0FFEE
:013255002256
:0532560090C05EE0FFE6
:01325B002250
:06325C0090C05EEFF022BD
:0632620090C05FEFF022B6
:102E8100AE07EEC3940850157401A806088002C36A
:102E910033D8FCFF90C057E04FFF023244EE24F8D4
:102EA100FF7401A807088002C333D8FCFF90C05FFC
:072EB100E04FFF1232622224
:0332170012326808
:05321A00E4FF02324454
:022F4F00AD07CC
:102F5100EDC39408500F123232EFA805088002C366
:102F610013D8FC8011123250ED24F8FEEFA80608A8
:0B2F71008002C313D8FC5401FEAF0621
:012F7C002232
:102C7500AE07EEC3940850227401A806088002C36B
:102C850033D8FCF4FF90C055E05FFFEDA80608803F
:102C950002C333D8FC4FFF02322CEE24F8FF740137
:102CA500A807088002C333D8FCF4FC90C05DE05C43
:102CB500FCAE05EEA807088002C333D8FC4CFF1212
:032CC500324A226E
:102CC800AE07EEC3940850201232387401A80608E3
:102CD8008002C333D8FCF45FFFEDA806088002C366
:102CE80033D8FC4FFF02323E123256EE24F8FC7401
:102CF80001A804088002C333D8FCF45FFFAE05EED8
:0F2D0800A804088002C333D8FC4FFF12325C22AC
:06298300903E831219A52D
:10298900903E871219B100000258903E871219B182
:1029990000000000903E83E0FCA3E0FDA3E0FEA35D
:1029A900E0FFA3E0F8A3E0F9A3E0FAA3E0FBC31278
:1029B90018AB5032903E8774FF121972EC4D4E4F8E
:1029C90070F2903E87E0FCA3E0FDA3E0FEA3E024C3
:1029D900FFFFEE34FFFEED34FFFDEC34FFFC903ECB
:0629E900871219A580AE63
:0129EF0022C5
:0632680090C022E4F022F8
:100016001231A512003E12004612004E12326E90A8
:10002600E618E4F090C022E054FEF090E006E4F01A
:04003600FF02316D27
:1031580090C020E0F0122DD61230787F0112316D28
:053168007F01022B2293
:0B2E0F00903DB4EBF0A3EAF0A3E9F063
:102E1A00E4AF05122FAA12309AEF7021903E8E0469
:102E2A00F0903FFDF0903DB4E0FBA3E0FAA3E0F997
:0D2E3A00122D1712321790C101E4F080FE36
:012E47002268
:0B2E4800903DB4EBF0A3EAF0A3E9F02A
:102E5300E4FF120006EF7025903E8E7402F0903F5F
:102E6300FDF0123193903DB4E0FBA3E0FAA3E0F947
:0D2E7300122D1712321790C101E4F080FEFD
:012E8000222F
:1022BD00903DB4EBF0A3EAF0A3E9F0A3E0FBA3E0BB
:1022CD00FAA3E0F99000071216E4FF903DB4E0FB8D
:1022DD00A3E0FAA3E0F99000071216E4FE6F600385
:1022ED000223A9903DB7E0FBA3E0FAA3E0F990002B
:1022FD00081216E4FF903DB4E0FBA3E0FAA3E0F969
:10230D009000081216E46F60030223A9903DB7E018
:10231D00FBA3E0FAA3E0F99000091216E4FF903D4B
:10232D00B4E0FBA3E0FAA3E0F99000091216E46F04
:10233D00706A903DB7E0FBA3E0FAA3E0F9900006C8
:10234D001216E4FF903DB4E0FBA3E0FAA3E0F99090
:10235D0000061216E4FD6F7043EED39400403D90DD
:10236D0000071216E4C394205032ED9400402DED79
:10237D00940D5028903E8E7403F0903FFDF0123274
:10238D0068123193903DB4E0FBA3E0FAA3E0F9129B
:0D239D002D1712321A90C101E4F080FE22CB
:10305500903E8FE06401701A90E012E04420F01277
:103065002D1712326812321A12319390C101E4F011
:0330750080FE22B8
:102D990090E0107480F0A3743EF0A3E4F0A3E05433
:102DA900F0F090E018746AF0A37418F0A3E4F0A3AB
:102DB9007480F090C021E04408F0A3E04408F0D208
:0C2DC90088D2A890E013E04480F0D2AF64
:012DD50022DB
:10316D00EF90E000B40106E04480F08004E0547F6D
:04317D00F0022D9996
:063193007B557D4D7F50CD
:0C31990090C200EFF0A3EDF0A3EBF022D9
:03000300022913BC
:10291300C0E0C0F0C083C082C0D075D000C000C08A
:0D29230001C002C003C004C005C006C0070B
:10293000903DE3E4F0C2AF90C020E0903DE3F0E0D2
:10294000FF30E70790E608E04408F0EF30E00312BC
:1029500026D2903DE3E030E30D90E012E030E50652
:08296000903E8F7401F0D2AF2C
:10296800D007D006D005D004D003D002D001D000C3
:0B297800D0D0D082D083D0F0D0E0326D
:03003B0002248B11
:10248B00C0E0C0F0C083C082C0D075D000C000C017
:10249B0004C005C006C007C2AF90C220740FF090F5
:1024AB00C233E0903DB2F090C232E0903DB1F0907B
:1024BB00C231E0903DB0F090C230E0903DAFF09073
:1024CB00C23DE0903E7FF090C23CE0903E80F090A9
:1024DB00C23BE0903E81F090C23EE0903E7EF09099
:1024EB00C23AE0903E6DF090C239E0903E6EF090B3
:1024FB00C238E0903E73F090C237E0903E74F0909B
:10250B00C236E0903E75F090C235E0903E76F0908A
:10251B00C234E0903E77F0903E6DE075F064A4FF1E
:10252B00A3E07C002FFFEC35F0FEE4FDA31219A510
:10253B0090C101E04401F0E04401F0903E90740141
:10254B00F0D2AFD007D006D005D004D000D0D0D079
:08255B0082D083D0F0D0E03201
:0300430002312A5D
:10312A00C0E0C083C082C2AF90C220740FF0D2AF99
:07313A00D082D083D0E03207
:03004B000231413E
:10314100C0E0C083C082C2AF90C220740FF0D2AF82
:07315100D082D083D0E032F0
:0300530002311067
:10311000C0E0C083C082C2AF75910090C220740F1E
:0A312000F0D2AFD082D083D0E032AD
:05003E00D2E8D2AF2260
:05004600D2E9D2AF2257
:05004E00D2EAD2AF224E
:05326E00D2EBD2AF22FB
:1031A500759852758780438920758BF1758DF1D29D
:0231B5008E2268
:10280B00022B7CE493A3F8E493A34003F68001F23C
:10281B0008DFF48029E493A3F85407240CC8C333CE
:10282B00C4540F4420C8834004F456800146F6DF9D
:10283B00E4800B010204081020408090108FE47E8E
:10284B00019360BCA3FF543F30E509541FFEE49392
:10285B00A360010ECF54C025E060A840B8E493A359
:10286B00FAE493A3F8E493A3C8C582C8CAC583CA84
:10287B00F0A3C8C582C8CAC583CADFE9DEE780BE3C
:0115D4000016
:1015D500E709F608DFFA8046E709F208DFFA803EF8
:1015E50088828C83E709F0A3DFFA8032E309F608E5
:1015F500DFFA8078E309F208DFFA807088828C834D
:10160500E309F0A3DFFA806489828A83E0A3F60800
:10161500DFFA805889828A83E0A3F208DFFA804CDA
:1016250080D280FA80C680D4806980F280338010B1
:1016350080A680EA809A80A880DA80E280CA80331A
:1016450089828A83ECFAE493A3C8C582C8CCC58392
:10165500CCF0A3C8C582C8CCC583CCDFE9DEE78062
:101665000D89828A83E493A3F608DFF9ECFAA9F0E1
:10167500EDFB2289828A83ECFAE0A3C8C582C8CC37
:10168500C583CCF0A3C8C582C8CCC583CCDFEADE50
:10169500E880DB89828A83E493A3F208DFF980CCB2
:1016A50088F0EF60010E4E60C388F0ED2402B404AB
:1016B5000050B9F582EB2402B4040050AF23234552
:0616C5008223901625733C
:1016CB00BB010689828A83E0225002E722BBFE021D
:0916DB00E32289828A83E4932250
:1016E400BB010CE58229F582E5833AF583E02250BB
:1016F40006E92582F8E622BBFE06E92582F8E22205
:0D170400E58229F582E5833AF583E493221E
:10171100BB010FF8E58229F582E5833AF583E028DC
:10172100F0225009C58229F8E58226F622BBFE097E
:10173100C58229F8E22582F222F8EA2583F583E9B8
:03174100932822C8
:10174400BB010689828A83F0225002F722BBFE0184
:02175400F3227E
:10175600F8BB010DE58229F582E5833AF583E8F0C9
:10176600225006E92582C8F622BBFE05E92582C875
:02177600F2225D
:10177800BB0110E58229F582E5833AF583E0F5F0AF
:10178800A3E0225009E92582F886F008E622BBFE8C
:101798000AE92582F8E2F5F008E222E5832AF583D2
:0817A800E993F5F0A3E9932297
:1017B000F8BB0111E58229F582E5833AF583E8F06B
:1017C000E5F0A3F0225009E92582C8F608A6F02228
:0D17D000BBFE09E92582C8F2E5F008F2220F
:1017DD0075F008758200EF2FFFEE33FECD33CDCCC3
:1017ED0033CCC58233C5829BED9AEC99E582984046
:1017FD000CF582EE9BFEED9AFDEC99FC0FD5F0D623
:10180D00E4CEFBE4CDFAE4CCF9A88222B800C1B94C
:10181D000059BA002DEC8BF084CFCECDFCE5F0CB8A
:10182D00F97818EF2FFFEE33FEED33FDEC33FCEBC3
:10183D0033FB10D703994004EB99FB0FD8E5E4F97E
:10184D00FA227818EF2FFFEE33FEED33FDEC33FC6B
:10185D00C933C910D7059BE99A4007EC9BFCE99A5F
:10186D00F90FD8E0E4C9FAE4CCFB2275F010EF2FA4
:10187D00FFEE33FEED33FDCC33CCC833C810D707A4
:10188D009BEC9AE899400AED9BFDEC9AFCE899F8DF
:0E189D000FD5F0DAE4CDFBE4CCFAE4C8F92272
:1018AB00EB9FF5F0EA9E42F0E99D42F0E89C45F093
:0118BB00220A
:1018BC00E8600FECC313FCED13FDEE13FEEF13FF0A
:0318CC00D8F1222E
:1018CF00E8600FEFC333FFEE33FEED33FDEC33FC77
:0318DF00D8F1221B
:1018E200BB010789828A83021A4A5005E9F8021A63
:1018F2003EBBFE05E9F8021A5689828A83021A6201
:10190200BB010DE58229F582E5833AF583021A4A85
:101912005007E92582F8021A3EBBFE07E92582F844
:10192200021A56E58229F582E5833AF583021A62A4
:10193200BB010789828A830219A55005E9F8021AB8
:0A19420072BBFE05E9F8021A7E22CE
:10194C00BB010DE58229F582E5833AF5830219A5E1
:10195C005007E92582F8021A72BBFE07E92582F8C6
:04196C00021A7E22BB
:101970007401FF3395E0FEFDFCA3A3A3E0CF2FF09D
:10198000E582158270021583E0CE3EF0E582158275
:1019900070021583E0CD3DF0E5821582700215835B
:0519A000E0CC3CF02248
:0C19A500ECF0A3EDF0A3EEF0A3EFF022B5
:1019B100A8828583F0D083D0821219C81219C81267
:1019C10019C81219C8E473E493A3C583C5F0C5838C
:1019D100C8C582C8F0A3C583C5F0C583C8C582C880
:0119E10022E3
:0C19E200A42582F582E5F03583F5832210
:1019EE00BB010789828A83021A935005E9F8021A0D
:1019FE008ABBFE05E9F8021A9C89828A83021AA51F
:101A0E00BB010DE58229F582E5833AF583021A932F
:101A1E005007E92582F8021A8ABBFE07E92582F8EB
:101A2E00021A9CE58229F582E5833AF583021AA50E
:0C1A3E00E6FC08E6FD08E6FE08E6FF22D4
:0C1A4A00E0FCA3E0FDA3E0FEA3E0FF220F
:0C1A5600E2FC08E2FD08E2FE08E2FF22CC
:101A6200E493FC740193FD740293FE740393FF22CA
:0C1A7200ECF608EDF608EEF608EFF622A0
:0C1A7E00ECF208EDF208EEF208EFF222A4
:091A8A00E6FB08E6FA08E6F92281
:091A9300E0FBA3E0FAA3E0F92254
:091A9C00E2FB08E2FA08E2F9227B
:0C1AA500E493FB740193FA740293F9229D
:00000001FF
